{
  "contractName": "NFTrade",
  "abi": [
    {
      "inputs": [
        {
          "internalType": "uint256",
          "name": "_feePercent",
          "type": "uint256"
        }
      ],
      "stateMutability": "nonpayable",
      "type": "constructor"
    },
    {
      "anonymous": false,
      "inputs": [
        {
          "indexed": true,
          "internalType": "address",
          "name": "owner",
          "type": "address"
        },
        {
          "indexed": true,
          "internalType": "address",
          "name": "approved",
          "type": "address"
        },
        {
          "indexed": true,
          "internalType": "uint256",
          "name": "tokenId",
          "type": "uint256"
        }
      ],
      "name": "Approval",
      "type": "event"
    },
    {
      "anonymous": false,
      "inputs": [
        {
          "indexed": true,
          "internalType": "address",
          "name": "owner",
          "type": "address"
        },
        {
          "indexed": true,
          "internalType": "address",
          "name": "operator",
          "type": "address"
        },
        {
          "indexed": false,
          "internalType": "bool",
          "name": "approved",
          "type": "bool"
        }
      ],
      "name": "ApprovalForAll",
      "type": "event"
    },
    {
      "anonymous": false,
      "inputs": [
        {
          "indexed": false,
          "internalType": "uint256",
          "name": "itemId",
          "type": "uint256"
        },
        {
          "indexed": false,
          "internalType": "string",
          "name": "hash",
          "type": "string"
        },
        {
          "indexed": true,
          "internalType": "address",
          "name": "nft",
          "type": "address"
        },
        {
          "indexed": false,
          "internalType": "uint256",
          "name": "tokenId",
          "type": "uint256"
        },
        {
          "indexed": false,
          "internalType": "uint256",
          "name": "price",
          "type": "uint256"
        },
        {
          "indexed": true,
          "internalType": "address",
          "name": "seller",
          "type": "address"
        },
        {
          "indexed": true,
          "internalType": "address",
          "name": "buyer",
          "type": "address"
        },
        {
          "indexed": false,
          "internalType": "bool",
          "name": "sold",
          "type": "bool"
        }
      ],
      "name": "Bought",
      "type": "event"
    },
    {
      "anonymous": false,
      "inputs": [
        {
          "indexed": false,
          "internalType": "uint256",
          "name": "itemId",
          "type": "uint256"
        },
        {
          "indexed": false,
          "internalType": "string",
          "name": "hash",
          "type": "string"
        },
        {
          "indexed": true,
          "internalType": "address",
          "name": "nft",
          "type": "address"
        },
        {
          "indexed": false,
          "internalType": "uint256",
          "name": "tokenId",
          "type": "uint256"
        },
        {
          "indexed": false,
          "internalType": "string",
          "name": "description",
          "type": "string"
        },
        {
          "indexed": false,
          "internalType": "uint256",
          "name": "price",
          "type": "uint256"
        },
        {
          "indexed": true,
          "internalType": "address",
          "name": "seller",
          "type": "address"
        },
        {
          "indexed": false,
          "internalType": "bool",
          "name": "sold",
          "type": "bool"
        }
      ],
      "name": "Offered",
      "type": "event"
    },
    {
      "anonymous": false,
      "inputs": [
        {
          "indexed": true,
          "internalType": "address",
          "name": "from",
          "type": "address"
        },
        {
          "indexed": true,
          "internalType": "address",
          "name": "to",
          "type": "address"
        },
        {
          "indexed": true,
          "internalType": "uint256",
          "name": "tokenId",
          "type": "uint256"
        }
      ],
      "name": "Transfer",
      "type": "event"
    },
    {
      "inputs": [
        {
          "internalType": "address",
          "name": "to",
          "type": "address"
        },
        {
          "internalType": "uint256",
          "name": "tokenId",
          "type": "uint256"
        }
      ],
      "name": "approve",
      "outputs": [],
      "stateMutability": "nonpayable",
      "type": "function"
    },
    {
      "inputs": [
        {
          "internalType": "address",
          "name": "owner",
          "type": "address"
        }
      ],
      "name": "balanceOf",
      "outputs": [
        {
          "internalType": "uint256",
          "name": "",
          "type": "uint256"
        }
      ],
      "stateMutability": "view",
      "type": "function",
      "constant": true
    },
    {
      "inputs": [],
      "name": "feeAccount",
      "outputs": [
        {
          "internalType": "address payable",
          "name": "",
          "type": "address"
        }
      ],
      "stateMutability": "view",
      "type": "function",
      "constant": true
    },
    {
      "inputs": [],
      "name": "feePercent",
      "outputs": [
        {
          "internalType": "uint256",
          "name": "",
          "type": "uint256"
        }
      ],
      "stateMutability": "view",
      "type": "function",
      "constant": true
    },
    {
      "inputs": [
        {
          "internalType": "uint256",
          "name": "tokenId",
          "type": "uint256"
        }
      ],
      "name": "getApproved",
      "outputs": [
        {
          "internalType": "address",
          "name": "",
          "type": "address"
        }
      ],
      "stateMutability": "view",
      "type": "function",
      "constant": true
    },
    {
      "inputs": [
        {
          "internalType": "address",
          "name": "owner",
          "type": "address"
        },
        {
          "internalType": "address",
          "name": "operator",
          "type": "address"
        }
      ],
      "name": "isApprovedForAll",
      "outputs": [
        {
          "internalType": "bool",
          "name": "",
          "type": "bool"
        }
      ],
      "stateMutability": "view",
      "type": "function",
      "constant": true
    },
    {
      "inputs": [],
      "name": "itemCount",
      "outputs": [
        {
          "internalType": "uint256",
          "name": "",
          "type": "uint256"
        }
      ],
      "stateMutability": "view",
      "type": "function",
      "constant": true
    },
    {
      "inputs": [
        {
          "internalType": "uint256",
          "name": "",
          "type": "uint256"
        }
      ],
      "name": "items",
      "outputs": [
        {
          "internalType": "uint256",
          "name": "itemId",
          "type": "uint256"
        },
        {
          "internalType": "string",
          "name": "hash",
          "type": "string"
        },
        {
          "internalType": "contract IERC721",
          "name": "nft",
          "type": "address"
        },
        {
          "internalType": "uint256",
          "name": "tokenId",
          "type": "uint256"
        },
        {
          "internalType": "string",
          "name": "description",
          "type": "string"
        },
        {
          "internalType": "uint256",
          "name": "price",
          "type": "uint256"
        },
        {
          "internalType": "address payable",
          "name": "seller",
          "type": "address"
        },
        {
          "internalType": "bool",
          "name": "sold",
          "type": "bool"
        }
      ],
      "stateMutability": "view",
      "type": "function",
      "constant": true
    },
    {
      "inputs": [
        {
          "internalType": "address",
          "name": "_to",
          "type": "address"
        },
        {
          "internalType": "string",
          "name": "_tokenURI",
          "type": "string"
        }
      ],
      "name": "mint",
      "outputs": [
        {
          "internalType": "uint256",
          "name": "",
          "type": "uint256"
        }
      ],
      "stateMutability": "nonpayable",
      "type": "function"
    },
    {
      "inputs": [],
      "name": "name",
      "outputs": [
        {
          "internalType": "string",
          "name": "",
          "type": "string"
        }
      ],
      "stateMutability": "view",
      "type": "function",
      "constant": true
    },
    {
      "inputs": [
        {
          "internalType": "uint256",
          "name": "tokenId",
          "type": "uint256"
        }
      ],
      "name": "ownerOf",
      "outputs": [
        {
          "internalType": "address",
          "name": "",
          "type": "address"
        }
      ],
      "stateMutability": "view",
      "type": "function",
      "constant": true
    },
    {
      "inputs": [
        {
          "internalType": "address",
          "name": "from",
          "type": "address"
        },
        {
          "internalType": "address",
          "name": "to",
          "type": "address"
        },
        {
          "internalType": "uint256",
          "name": "tokenId",
          "type": "uint256"
        }
      ],
      "name": "safeTransferFrom",
      "outputs": [],
      "stateMutability": "nonpayable",
      "type": "function"
    },
    {
      "inputs": [
        {
          "internalType": "address",
          "name": "from",
          "type": "address"
        },
        {
          "internalType": "address",
          "name": "to",
          "type": "address"
        },
        {
          "internalType": "uint256",
          "name": "tokenId",
          "type": "uint256"
        },
        {
          "internalType": "bytes",
          "name": "data",
          "type": "bytes"
        }
      ],
      "name": "safeTransferFrom",
      "outputs": [],
      "stateMutability": "nonpayable",
      "type": "function"
    },
    {
      "inputs": [
        {
          "internalType": "address",
          "name": "operator",
          "type": "address"
        },
        {
          "internalType": "bool",
          "name": "approved",
          "type": "bool"
        }
      ],
      "name": "setApprovalForAll",
      "outputs": [],
      "stateMutability": "nonpayable",
      "type": "function"
    },
    {
      "inputs": [
        {
          "internalType": "bytes4",
          "name": "interfaceId",
          "type": "bytes4"
        }
      ],
      "name": "supportsInterface",
      "outputs": [
        {
          "internalType": "bool",
          "name": "",
          "type": "bool"
        }
      ],
      "stateMutability": "view",
      "type": "function",
      "constant": true
    },
    {
      "inputs": [],
      "name": "symbol",
      "outputs": [
        {
          "internalType": "string",
          "name": "",
          "type": "string"
        }
      ],
      "stateMutability": "view",
      "type": "function",
      "constant": true
    },
    {
      "inputs": [
        {
          "internalType": "uint256",
          "name": "index",
          "type": "uint256"
        }
      ],
      "name": "tokenByIndex",
      "outputs": [
        {
          "internalType": "uint256",
          "name": "",
          "type": "uint256"
        }
      ],
      "stateMutability": "view",
      "type": "function",
      "constant": true
    },
    {
      "inputs": [
        {
          "internalType": "address",
          "name": "owner",
          "type": "address"
        },
        {
          "internalType": "uint256",
          "name": "index",
          "type": "uint256"
        }
      ],
      "name": "tokenOfOwnerByIndex",
      "outputs": [
        {
          "internalType": "uint256",
          "name": "",
          "type": "uint256"
        }
      ],
      "stateMutability": "view",
      "type": "function",
      "constant": true
    },
    {
      "inputs": [
        {
          "internalType": "uint256",
          "name": "tokenId",
          "type": "uint256"
        }
      ],
      "name": "tokenURI",
      "outputs": [
        {
          "internalType": "string",
          "name": "",
          "type": "string"
        }
      ],
      "stateMutability": "view",
      "type": "function",
      "constant": true
    },
    {
      "inputs": [],
      "name": "totalSupply",
      "outputs": [
        {
          "internalType": "uint256",
          "name": "",
          "type": "uint256"
        }
      ],
      "stateMutability": "view",
      "type": "function",
      "constant": true
    },
    {
      "inputs": [
        {
          "internalType": "address",
          "name": "from",
          "type": "address"
        },
        {
          "internalType": "address",
          "name": "to",
          "type": "address"
        },
        {
          "internalType": "uint256",
          "name": "tokenId",
          "type": "uint256"
        }
      ],
      "name": "transferFrom",
      "outputs": [],
      "stateMutability": "nonpayable",
      "type": "function"
    },
    {
      "inputs": [
        {
          "internalType": "contract IERC721",
          "name": "_nft",
          "type": "address"
        },
        {
          "internalType": "string",
          "name": "_hash",
          "type": "string"
        },
        {
          "internalType": "string",
          "name": "_description",
          "type": "string"
        },
        {
          "internalType": "uint256",
          "name": "_tokenId",
          "type": "uint256"
        },
        {
          "internalType": "uint256",
          "name": "_price",
          "type": "uint256"
        }
      ],
      "name": "listItem",
      "outputs": [],
      "stateMutability": "nonpayable",
      "type": "function"
    },
    {
      "inputs": [],
      "name": "getFeePercent",
      "outputs": [
        {
          "internalType": "uint256",
          "name": "",
          "type": "uint256"
        }
      ],
      "stateMutability": "view",
      "type": "function",
      "constant": true
    },
    {
      "inputs": [
        {
          "internalType": "uint256",
          "name": "_itemId",
          "type": "uint256"
        }
      ],
      "name": "purchaseItem",
      "outputs": [],
      "stateMutability": "payable",
      "type": "function",
      "payable": true
    },
    {
      "inputs": [
        {
          "internalType": "uint256",
          "name": "_itemId",
          "type": "uint256"
        }
      ],
      "name": "getTotalPrice",
      "outputs": [
        {
          "internalType": "uint256",
          "name": "",
          "type": "uint256"
        }
      ],
      "stateMutability": "nonpayable",
      "type": "function"
    }
  ],
  "bytecode": "0x60c06040523480156200001157600080fd5b5060405162004c9638038062004c968339818101604052810190620000379190620001ec565b6040518060400160405280600b81526020017f4e465472616465204e46540000000000000000000000000000000000000000008152506040518060400160405280600781526020017f4e465452414445000000000000000000000000000000000000000000000000008152508160009080519060200190620000bb92919062000125565b508060019080519060200190620000d492919062000125565b5050506001600b819055503373ffffffffffffffffffffffffffffffffffffffff1660808173ffffffffffffffffffffffffffffffffffffffff1660601b815250508060a0818152505050620002a1565b828054620001339062000222565b90600052602060002090601f016020900481019282620001575760008555620001a3565b82601f106200017257805160ff1916838001178555620001a3565b82800160010185558215620001a3579182015b82811115620001a257825182559160200191906001019062000185565b5b509050620001b29190620001b6565b5090565b5b80821115620001d1576000816000905550600101620001b7565b5090565b600081519050620001e68162000287565b92915050565b600060208284031215620001ff57600080fd5b60006200020f84828501620001d5565b91505092915050565b6000819050919050565b600060028204905060018216806200023b57607f821691505b6020821081141562000252576200025162000258565b5b50919050565b7f4e487b7100000000000000000000000000000000000000000000000000000000600052602260045260246000fd5b620002928162000218565b81146200029e57600080fd5b50565b60805160601c60a0516149b7620002df60003960008181610b8601528181610cb60152610e97015260008181610aa401526110ce01526149b76000f3fe6080604052600436106101665760003560e01c806370a08231116100d1578063bfb231d21161008a578063d0def52111610064578063d0def52114610591578063d38ea5bf146105ce578063e985e9c5146105ea578063ef35ae031461062757610166565b8063bfb231d2146104d3578063c87b56dd14610517578063ca7dd3751461055457610166565b806370a08231146103c35780637fd6f15c1461040057806395d89b411461042b578063a22cb46514610456578063b88d4fde1461047f578063be74264d146104a857610166565b80632f745c59116101235780632f745c591461028d57806342842e0e146102ca5780634f6ccce7146102f35780636352211e1461033057806365e17c9d1461036d5780636bfb0d011461039857610166565b806301ffc9a71461016b57806306fdde03146101a8578063081812fc146101d3578063095ea7b31461021057806318160ddd1461023957806323b872dd14610264575b600080fd5b34801561017757600080fd5b50610192600480360381019061018d91906133e7565b610650565b60405161019f9190613a79565b60405180910390f35b3480156101b457600080fd5b506101bd610662565b6040516101ca9190613a94565b60405180910390f35b3480156101df57600080fd5b506101fa60048036038101906101f591906134e0565b6106f4565b60405161020791906139c0565b60405180910390f35b34801561021c57600080fd5b50610237600480360381019061023291906133ab565b61073a565b005b34801561024557600080fd5b5061024e610852565b60405161025b9190613d96565b60405180910390f35b34801561027057600080fd5b5061028b60048036038101906102869190613251565b61085f565b005b34801561029957600080fd5b506102b460048036038101906102af91906133ab565b6108bf565b6040516102c19190613d96565b60405180910390f35b3480156102d657600080fd5b506102f160048036038101906102ec9190613251565b610964565b005b3480156102ff57600080fd5b5061031a600480360381019061031591906134e0565b610984565b6040516103279190613d96565b60405180910390f35b34801561033c57600080fd5b50610357600480360381019061035291906134e0565b610a1b565b60405161036491906139c0565b60405180910390f35b34801561037957600080fd5b50610382610aa2565b60405161038f91906139db565b60405180910390f35b3480156103a457600080fd5b506103ad610ac6565b6040516103ba9190613d96565b60405180910390f35b3480156103cf57600080fd5b506103ea60048036038101906103e591906131ec565b610acc565b6040516103f79190613d96565b60405180910390f35b34801561040c57600080fd5b50610415610b84565b6040516104229190613d96565b60405180910390f35b34801561043757600080fd5b50610440610ba8565b60405161044d9190613a94565b60405180910390f35b34801561046257600080fd5b5061047d6004803603810190610478919061331b565b610c3a565b005b34801561048b57600080fd5b506104a660048036038101906104a191906132a0565b610c50565b005b3480156104b457600080fd5b506104bd610cb2565b6040516104ca9190613d96565b60405180910390f35b3480156104df57600080fd5b506104fa60048036038101906104f591906134e0565b610cda565b60405161050e989796959493929190613db1565b60405180910390f35b34801561052357600080fd5b5061053e600480360381019061053991906134e0565b610e7f565b60405161054b9190613a94565b60405180910390f35b34801561056057600080fd5b5061057b600480360381019061057691906134e0565b610e91565b6040516105889190613d96565b60405180910390f35b34801561059d57600080fd5b506105b860048036038101906105b39190613357565b610f0d565b6040516105c59190613d96565b60405180910390f35b6105e860048036038101906105e391906134e0565b610f4b565b005b3480156105f657600080fd5b50610611600480360381019061060c9190613215565b6112b3565b60405161061e9190613a79565b60405180910390f35b34801561063357600080fd5b5061064e60048036038101906106499190613439565b611347565b005b600061065b8261171b565b9050919050565b606060008054610671906141f8565b80601f016020809104026020016040519081016040528092919081815260200182805461069d906141f8565b80156106ea5780601f106106bf576101008083540402835291602001916106ea565b820191906000526020600020905b8154815290600101906020018083116106cd57829003601f168201915b5050505050905090565b60006106ff82611795565b6004600083815260200190815260200160002060009054906101000a900473ffffffffffffffffffffffffffffffffffffffff169050919050565b600061074582610a1b565b90508073ffffffffffffffffffffffffffffffffffffffff168373ffffffffffffffffffffffffffffffffffffffff1614156107b6576040517f08c379a00000000000000000000000000000000000000000000000000000000081526004016107ad90613cd6565b60405180910390fd5b8073ffffffffffffffffffffffffffffffffffffffff166107d56117e0565b73ffffffffffffffffffffffffffffffffffffffff1614806108045750610803816107fe6117e0565b6112b3565b5b610843576040517f08c379a000000000000000000000000000000000000000000000000000000000815260040161083a90613cf6565b60405180910390fd5b61084d83836117e8565b505050565b6000600980549050905090565b61087061086a6117e0565b826118a1565b6108af576040517f08c379a00000000000000000000000000000000000000000000000000000000081526004016108a690613ab6565b60405180910390fd5b6108ba838383611936565b505050565b60006108ca83610acc565b821061090b576040517f08c379a000000000000000000000000000000000000000000000000000000000815260040161090290613af6565b60405180910390fd5b600760008473ffffffffffffffffffffffffffffffffffffffff1673ffffffffffffffffffffffffffffffffffffffff168152602001908152602001600020600083815260200190815260200160002054905092915050565b61097f83838360405180602001604052806000815250610c50565b505050565b600061098e610852565b82106109cf576040517f08c379a00000000000000000000000000000000000000000000000000000000081526004016109c690613d16565b60405180910390fd5b60098281548110610a09577f4e487b7100000000000000000000000000000000000000000000000000000000600052603260045260246000fd5b90600052602060002001549050919050565b600080610a2783611c30565b9050600073ffffffffffffffffffffffffffffffffffffffff168173ffffffffffffffffffffffffffffffffffffffff161415610a99576040517f08c379a0000000000000000000000000000000000000000000000000000000008152600401610a9090613c96565b60405180910390fd5b80915050919050565b7f000000000000000000000000000000000000000000000000000000000000000081565b600c5481565b60008073ffffffffffffffffffffffffffffffffffffffff168273ffffffffffffffffffffffffffffffffffffffff161415610b3d576040517f08c379a0000000000000000000000000000000000000000000000000000000008152600401610b3490613bd6565b60405180910390fd5b600360008373ffffffffffffffffffffffffffffffffffffffff1673ffffffffffffffffffffffffffffffffffffffff168152602001908152602001600020549050919050565b7f000000000000000000000000000000000000000000000000000000000000000081565b606060018054610bb7906141f8565b80601f0160208091040260200160405190810160405280929190818152602001828054610be3906141f8565b8015610c305780601f10610c0557610100808354040283529160200191610c30565b820191906000526020600020905b815481529060010190602001808311610c1357829003601f168201915b5050505050905090565b610c4c610c456117e0565b8383611c6d565b5050565b610c61610c5b6117e0565b836118a1565b610ca0576040517f08c379a0000000000000000000000000000000000000000000000000000000008152600401610c9790613ab6565b60405180910390fd5b610cac84848484611dda565b50505050565b60007f0000000000000000000000000000000000000000000000000000000000000000905090565b600d602052806000526040600020600091509050806000015490806001018054610d03906141f8565b80601f0160208091040260200160405190810160405280929190818152602001828054610d2f906141f8565b8015610d7c5780601f10610d5157610100808354040283529160200191610d7c565b820191906000526020600020905b815481529060010190602001808311610d5f57829003601f168201915b5050505050908060020160009054906101000a900473ffffffffffffffffffffffffffffffffffffffff1690806003015490806004018054610dbd906141f8565b80601f0160208091040260200160405190810160405280929190818152602001828054610de9906141f8565b8015610e365780601f10610e0b57610100808354040283529160200191610e36565b820191906000526020600020905b815481529060010190602001808311610e1957829003601f168201915b5050505050908060050154908060060160009054906101000a900473ffffffffffffffffffffffffffffffffffffffff16908060060160149054906101000a900460ff16905088565b6060610e8a82611e36565b9050919050565b600060647f00000000000000000000000000000000000000000000000000000000000000006064610ec29190613fe5565b600d600085815260200190815260200160002060050154610ee3919061406c565b610eed919061403b565b600d60008481526020019081526020016000206005018190559050919050565b600080610f2b6001610f1d610852565b611f4990919063ffffffff16565b9050610f378482611f5f565b610f418184611f7d565b8091505092915050565b610f53611ff1565b6000610f5e82610e91565b90506000600d60008481526020019081526020016000209050600083118015610f895750600c548311155b610fc8576040517f08c379a0000000000000000000000000000000000000000000000000000000008152600401610fbf90613c56565b60405180910390fd5b8134101561100b576040517f08c379a000000000000000000000000000000000000000000000000000000000815260040161100290613c16565b60405180910390fd5b8060060160149054906101000a900460ff161561105d576040517f08c379a000000000000000000000000000000000000000000000000000000000815260040161105490613ad6565b60405180910390fd5b8060060160009054906101000a900473ffffffffffffffffffffffffffffffffffffffff1673ffffffffffffffffffffffffffffffffffffffff166108fc82600501549081150290604051600060405180830381858888f193505050501580156110cb573d6000803e3d6000fd5b507f000000000000000000000000000000000000000000000000000000000000000073ffffffffffffffffffffffffffffffffffffffff166108fc82600501548461111691906140c6565b9081150290604051600060405180830381858888f19350505050158015611141573d6000803e3d6000fd5b5060018160060160146101000a81548160ff0219169083151502179055508060020160009054906101000a900473ffffffffffffffffffffffffffffffffffffffff1673ffffffffffffffffffffffffffffffffffffffff166323b872dd303384600301546040518463ffffffff1660e01b81526004016111c4939291906139f6565b600060405180830381600087803b1580156111de57600080fd5b505af11580156111f2573d6000803e3d6000fd5b505050503373ffffffffffffffffffffffffffffffffffffffff168160060160009054906101000a900473ffffffffffffffffffffffffffffffffffffffff1673ffffffffffffffffffffffffffffffffffffffff163073ffffffffffffffffffffffffffffffffffffffff167f508f9bbf5aa3671db3835f0d1a8e257e7e5fffcb45aafcd27bfbcbb3d41976ca8685600101866003015488600160405161129e959493929190613eac565b60405180910390a450506112b0612041565b50565b6000600560008473ffffffffffffffffffffffffffffffffffffffff1673ffffffffffffffffffffffffffffffffffffffff16815260200190815260200160002060008373ffffffffffffffffffffffffffffffffffffffff1673ffffffffffffffffffffffffffffffffffffffff16815260200190815260200160002060009054906101000a900460ff16905092915050565b61134f611ff1565b60008111611392576040517f08c379a000000000000000000000000000000000000000000000000000000000815260040161138990613d76565b60405180910390fd5b60008451116113d6576040517f08c379a00000000000000000000000000000000000000000000000000000000081526004016113cd90613b76565b60405180910390fd5b600083511161141a576040517f08c379a000000000000000000000000000000000000000000000000000000000815260040161141190613c76565b60405180910390fd5b600073ffffffffffffffffffffffffffffffffffffffff163373ffffffffffffffffffffffffffffffffffffffff16141561148a576040517f08c379a000000000000000000000000000000000000000000000000000000000815260040161148190613cb6565b60405180910390fd5b600c600081548092919061149d9061425b565b91905055508473ffffffffffffffffffffffffffffffffffffffff166323b872dd3330856040518463ffffffff1660e01b81526004016114df939291906139f6565b600060405180830381600087803b1580156114f957600080fd5b505af115801561150d573d6000803e3d6000fd5b50505050604051806101000160405280600c5481526020018581526020018673ffffffffffffffffffffffffffffffffffffffff1681526020018381526020018481526020018281526020013373ffffffffffffffffffffffffffffffffffffffff16815260200160001515815250600d6000600c5481526020019081526020016000206000820151816000015560208201518160010190805190602001906115b7929190612ffb565b5060408201518160020160006101000a81548173ffffffffffffffffffffffffffffffffffffffff021916908373ffffffffffffffffffffffffffffffffffffffff160217905550606082015181600301556080820151816004019080519060200190611625929190612ffb565b5060a0820151816005015560c08201518160060160006101000a81548173ffffffffffffffffffffffffffffffffffffffff021916908373ffffffffffffffffffffffffffffffffffffffff16021790555060e08201518160060160146101000a81548160ff0219169083151502179055509050503373ffffffffffffffffffffffffffffffffffffffff163073ffffffffffffffffffffffffffffffffffffffff167f4aadf4f70c498cc840066e4274bf13e7d67463272157de05a26960deac0a3a4b600c5487868887600060405161170496959493929190613e3d565b60405180910390a3611714612041565b5050505050565b60007f780e9d63000000000000000000000000000000000000000000000000000000007bffffffffffffffffffffffffffffffffffffffffffffffffffffffff1916827bffffffffffffffffffffffffffffffffffffffffffffffffffffffff1916148061178e575061178d8261204b565b5b9050919050565b61179e8161212d565b6117dd576040517f08c379a00000000000000000000000000000000000000000000000000000000081526004016117d490613c96565b60405180910390fd5b50565b600033905090565b816004600083815260200190815260200160002060006101000a81548173ffffffffffffffffffffffffffffffffffffffff021916908373ffffffffffffffffffffffffffffffffffffffff160217905550808273ffffffffffffffffffffffffffffffffffffffff1661185b83610a1b565b73ffffffffffffffffffffffffffffffffffffffff167f8c5be1e5ebec7d5bd14f71427d1e84f3dd0314c0f7b2291e5b200ac8c7c3b92560405160405180910390a45050565b6000806118ad83610a1b565b90508073ffffffffffffffffffffffffffffffffffffffff168473ffffffffffffffffffffffffffffffffffffffff1614806118ef57506118ee81856112b3565b5b8061192d57508373ffffffffffffffffffffffffffffffffffffffff16611915846106f4565b73ffffffffffffffffffffffffffffffffffffffff16145b91505092915050565b8273ffffffffffffffffffffffffffffffffffffffff1661195682610a1b565b73ffffffffffffffffffffffffffffffffffffffff16146119ac576040517f08c379a00000000000000000000000000000000000000000000000000000000081526004016119a390613b36565b60405180910390fd5b600073ffffffffffffffffffffffffffffffffffffffff168273ffffffffffffffffffffffffffffffffffffffff161415611a1c576040517f08c379a0000000000000000000000000000000000000000000000000000000008152600401611a1390613b96565b60405180910390fd5b611a29838383600161216e565b8273ffffffffffffffffffffffffffffffffffffffff16611a4982610a1b565b73ffffffffffffffffffffffffffffffffffffffff1614611a9f576040517f08c379a0000000000000000000000000000000000000000000000000000000008152600401611a9690613b36565b60405180910390fd5b6004600082815260200190815260200160002060006101000a81549073ffffffffffffffffffffffffffffffffffffffff02191690556001600360008573ffffffffffffffffffffffffffffffffffffffff1673ffffffffffffffffffffffffffffffffffffffff168152602001908152602001600020600082825403925050819055506001600360008473ffffffffffffffffffffffffffffffffffffffff1673ffffffffffffffffffffffffffffffffffffffff16815260200190815260200160002060008282540192505081905550816002600083815260200190815260200160002060006101000a81548173ffffffffffffffffffffffffffffffffffffffff021916908373ffffffffffffffffffffffffffffffffffffffff160217905550808273ffffffffffffffffffffffffffffffffffffffff168473ffffffffffffffffffffffffffffffffffffffff167fddf252ad1be2c89b69c2b068fc378daa952ba7f163c4a11628f55a4df523b3ef60405160405180910390a4611c2b8383836001612180565b505050565b60006002600083815260200190815260200160002060009054906101000a900473ffffffffffffffffffffffffffffffffffffffff169050919050565b8173ffffffffffffffffffffffffffffffffffffffff168373ffffffffffffffffffffffffffffffffffffffff161415611cdc576040517f08c379a0000000000000000000000000000000000000000000000000000000008152600401611cd390613bb6565b60405180910390fd5b80600560008573ffffffffffffffffffffffffffffffffffffffff1673ffffffffffffffffffffffffffffffffffffffff16815260200190815260200160002060008473ffffffffffffffffffffffffffffffffffffffff1673ffffffffffffffffffffffffffffffffffffffff16815260200190815260200160002060006101000a81548160ff0219169083151502179055508173ffffffffffffffffffffffffffffffffffffffff168373ffffffffffffffffffffffffffffffffffffffff167f17307eab39ab6107e8899845ad3d59bd9653f200f220920489ca2b5937696c3183604051611dcd9190613a79565b60405180910390a3505050565b611de5848484611936565b611df184848484612186565b611e30576040517f08c379a0000000000000000000000000000000000000000000000000000000008152600401611e2790613b16565b60405180910390fd5b50505050565b6060611e4182611795565b6000600660008481526020019081526020016000208054611e61906141f8565b80601f0160208091040260200160405190810160405280929190818152602001828054611e8d906141f8565b8015611eda5780601f10611eaf57610100808354040283529160200191611eda565b820191906000526020600020905b815481529060010190602001808311611ebd57829003601f168201915b505050505090506000611eeb61231d565b9050600081511415611f01578192505050611f44565b600082511115611f36578082604051602001611f1e92919061399c565b60405160208183030381529060405292505050611f44565b611f3f84612334565b925050505b919050565b60008183611f579190613fe5565b905092915050565b611f7982826040518060200160405280600081525061239c565b5050565b611f868261212d565b611fc5576040517f08c379a0000000000000000000000000000000000000000000000000000000008152600401611fbc90613bf6565b60405180910390fd5b80600660008481526020019081526020016000209080519060200190611fec929190612ffb565b505050565b6002600b541415612037576040517f08c379a000000000000000000000000000000000000000000000000000000000815260040161202e90613d56565b60405180910390fd5b6002600b81905550565b6001600b81905550565b60007f80ac58cd000000000000000000000000000000000000000000000000000000007bffffffffffffffffffffffffffffffffffffffffffffffffffffffff1916827bffffffffffffffffffffffffffffffffffffffffffffffffffffffff1916148061211657507f5b5e139f000000000000000000000000000000000000000000000000000000007bffffffffffffffffffffffffffffffffffffffffffffffffffffffff1916827bffffffffffffffffffffffffffffffffffffffffffffffffffffffff1916145b806121265750612125826123f7565b5b9050919050565b60008073ffffffffffffffffffffffffffffffffffffffff1661214f83611c30565b73ffffffffffffffffffffffffffffffffffffffff1614159050919050565b61217a84848484612461565b50505050565b50505050565b60006121a78473ffffffffffffffffffffffffffffffffffffffff166125c1565b15612310578373ffffffffffffffffffffffffffffffffffffffff1663150b7a026121d06117e0565b8786866040518563ffffffff1660e01b81526004016121f29493929190613a2d565b602060405180830381600087803b15801561220c57600080fd5b505af192505050801561223d57506040513d601f19601f8201168201806040525081019061223a9190613410565b60015b6122c0573d806000811461226d576040519150601f19603f3d011682016040523d82523d6000602084013e612272565b606091505b506000815114156122b8576040517f08c379a00000000000000000000000000000000000000000000000000000000081526004016122af90613b16565b60405180910390fd5b805181602001fd5b63150b7a0260e01b7bffffffffffffffffffffffffffffffffffffffffffffffffffffffff1916817bffffffffffffffffffffffffffffffffffffffffffffffffffffffff191614915050612315565b600190505b949350505050565b606060405180602001604052806000815250905090565b606061233f82611795565b600061234961231d565b905060008151116123695760405180602001604052806000815250612394565b80612373846125e4565b60405160200161238492919061399c565b6040516020818303038152906040525b915050919050565b6123a68383612708565b6123b36000848484612186565b6123f2576040517f08c379a00000000000000000000000000000000000000000000000000000000081526004016123e990613b16565b60405180910390fd5b505050565b60007f01ffc9a7000000000000000000000000000000000000000000000000000000007bffffffffffffffffffffffffffffffffffffffffffffffffffffffff1916827bffffffffffffffffffffffffffffffffffffffffffffffffffffffff1916149050919050565b61246d84848484612926565b60018111156124b1576040517f08c379a00000000000000000000000000000000000000000000000000000000081526004016124a890613d36565b60405180910390fd5b6000829050600073ffffffffffffffffffffffffffffffffffffffff168573ffffffffffffffffffffffffffffffffffffffff1614156124f9576124f481612a4c565b612538565b8373ffffffffffffffffffffffffffffffffffffffff168573ffffffffffffffffffffffffffffffffffffffff1614612537576125368582612a95565b5b5b600073ffffffffffffffffffffffffffffffffffffffff168473ffffffffffffffffffffffffffffffffffffffff16141561257b5761257681612c02565b6125ba565b8473ffffffffffffffffffffffffffffffffffffffff168473ffffffffffffffffffffffffffffffffffffffff16146125b9576125b88482612d45565b5b5b5050505050565b6000808273ffffffffffffffffffffffffffffffffffffffff163b119050919050565b6060600060016125f384612dc4565b01905060008167ffffffffffffffff811115612638577f4e487b7100000000000000000000000000000000000000000000000000000000600052604160045260246000fd5b6040519080825280601f01601f19166020018201604052801561266a5781602001600182028036833780820191505090505b509050600082602001820190505b6001156126fd578080600190039150507f3031323334353637383961626364656600000000000000000000000000000000600a86061a8153600a85816126e7577f4e487b7100000000000000000000000000000000000000000000000000000000600052601260045260246000fd5b04945060008514156126f8576126fd565b612678565b819350505050919050565b600073ffffffffffffffffffffffffffffffffffffffff168273ffffffffffffffffffffffffffffffffffffffff161415612778576040517f08c379a000000000000000000000000000000000000000000000000000000000815260040161276f90613c36565b60405180910390fd5b6127818161212d565b156127c1576040517f08c379a00000000000000000000000000000000000000000000000000000000081526004016127b890613b56565b60405180910390fd5b6127cf60008383600161216e565b6127d88161212d565b15612818576040517f08c379a000000000000000000000000000000000000000000000000000000000815260040161280f90613b56565b60405180910390fd5b6001600360008473ffffffffffffffffffffffffffffffffffffffff1673ffffffffffffffffffffffffffffffffffffffff16815260200190815260200160002060008282540192505081905550816002600083815260200190815260200160002060006101000a81548173ffffffffffffffffffffffffffffffffffffffff021916908373ffffffffffffffffffffffffffffffffffffffff160217905550808273ffffffffffffffffffffffffffffffffffffffff16600073ffffffffffffffffffffffffffffffffffffffff167fddf252ad1be2c89b69c2b068fc378daa952ba7f163c4a11628f55a4df523b3ef60405160405180910390a4612922600083836001612180565b5050565b6001811115612a4657600073ffffffffffffffffffffffffffffffffffffffff168473ffffffffffffffffffffffffffffffffffffffff16146129ba5780600360008673ffffffffffffffffffffffffffffffffffffffff1673ffffffffffffffffffffffffffffffffffffffff16815260200190815260200160002060008282546129b291906140c6565b925050819055505b600073ffffffffffffffffffffffffffffffffffffffff168373ffffffffffffffffffffffffffffffffffffffff1614612a455780600360008573ffffffffffffffffffffffffffffffffffffffff1673ffffffffffffffffffffffffffffffffffffffff1681526020019081526020016000206000828254612a3d9190613fe5565b925050819055505b5b50505050565b600980549050600a600083815260200190815260200160002081905550600981908060018154018082558091505060019003906000526020600020016000909190919091505550565b60006001612aa284610acc565b612aac91906140c6565b9050600060086000848152602001908152602001600020549050818114612b91576000600760008673ffffffffffffffffffffffffffffffffffffffff1673ffffffffffffffffffffffffffffffffffffffff168152602001908152602001600020600084815260200190815260200160002054905080600760008773ffffffffffffffffffffffffffffffffffffffff1673ffffffffffffffffffffffffffffffffffffffff168152602001908152602001600020600084815260200190815260200160002081905550816008600083815260200190815260200160002081905550505b6008600084815260200190815260200160002060009055600760008573ffffffffffffffffffffffffffffffffffffffff1673ffffffffffffffffffffffffffffffffffffffff16815260200190815260200160002060008381526020019081526020016000206000905550505050565b60006001600980549050612c1691906140c6565b90506000600a6000848152602001908152602001600020549050600060098381548110612c6c577f4e487b7100000000000000000000000000000000000000000000000000000000600052603260045260246000fd5b906000526020600020015490508060098381548110612cb4577f4e487b7100000000000000000000000000000000000000000000000000000000600052603260045260246000fd5b906000526020600020018190555081600a600083815260200190815260200160002081905550600a6000858152602001908152602001600020600090556009805480612d29577f4e487b7100000000000000000000000000000000000000000000000000000000600052603160045260246000fd5b6001900381819060005260206000200160009055905550505050565b6000612d5083610acc565b905081600760008573ffffffffffffffffffffffffffffffffffffffff1673ffffffffffffffffffffffffffffffffffffffff168152602001908152602001600020600083815260200190815260200160002081905550806008600084815260200190815260200160002081905550505050565b600080600090507a184f03e93ff9f4daa797ed6e38ed64bf6a1f0100000000000000008310612e48577a184f03e93ff9f4daa797ed6e38ed64bf6a1f0100000000000000008381612e3e577f4e487b7100000000000000000000000000000000000000000000000000000000600052601260045260246000fd5b0492506040810190505b6d04ee2d6d415b85acef81000000008310612eab576d04ee2d6d415b85acef81000000008381612ea1577f4e487b7100000000000000000000000000000000000000000000000000000000600052601260045260246000fd5b0492506020810190505b662386f26fc100008310612f0057662386f26fc100008381612ef6577f4e487b7100000000000000000000000000000000000000000000000000000000600052601260045260246000fd5b0492506010810190505b6305f5e1008310612f4f576305f5e1008381612f45577f4e487b7100000000000000000000000000000000000000000000000000000000600052601260045260246000fd5b0492506008810190505b6127108310612f9a576127108381612f90577f4e487b7100000000000000000000000000000000000000000000000000000000600052601260045260246000fd5b0492506004810190505b60648310612fe35760648381612fd9577f4e487b7100000000000000000000000000000000000000000000000000000000600052601260045260246000fd5b0492506002810190505b600a8310612ff2576001810190505b80915050919050565b828054613007906141f8565b90600052602060002090601f0160209004810192826130295760008555613070565b82601f1061304257805160ff1916838001178555613070565b82800160010185558215613070579182015b8281111561306f578251825591602001919060010190613054565b5b50905061307d9190613081565b5090565b5b8082111561309a576000816000905550600101613082565b5090565b60006130b16130ac84613f2b565b613f06565b9050828152602081018484840111156130c957600080fd5b6130d48482856141b6565b509392505050565b60006130ef6130ea84613f5c565b613f06565b90508281526020810184848401111561310757600080fd5b6131128482856141b6565b509392505050565b6000813590506131298161490e565b92915050565b60008135905061313e81614925565b92915050565b6000813590506131538161493c565b92915050565b6000815190506131688161493c565b92915050565b600082601f83011261317f57600080fd5b813561318f84826020860161309e565b91505092915050565b6000813590506131a781614953565b92915050565b600082601f8301126131be57600080fd5b81356131ce8482602086016130dc565b91505092915050565b6000813590506131e68161496a565b92915050565b6000602082840312156131fe57600080fd5b600061320c8482850161311a565b91505092915050565b6000806040838503121561322857600080fd5b60006132368582860161311a565b92505060206132478582860161311a565b9150509250929050565b60008060006060848603121561326657600080fd5b60006132748682870161311a565b93505060206132858682870161311a565b9250506040613296868287016131d7565b9150509250925092565b600080600080608085870312156132b657600080fd5b60006132c48782880161311a565b94505060206132d58782880161311a565b93505060406132e6878288016131d7565b925050606085013567ffffffffffffffff81111561330357600080fd5b61330f8782880161316e565b91505092959194509250565b6000806040838503121561332e57600080fd5b600061333c8582860161311a565b925050602061334d8582860161312f565b9150509250929050565b6000806040838503121561336a57600080fd5b60006133788582860161311a565b925050602083013567ffffffffffffffff81111561339557600080fd5b6133a1858286016131ad565b9150509250929050565b600080604083850312156133be57600080fd5b60006133cc8582860161311a565b92505060206133dd858286016131d7565b9150509250929050565b6000602082840312156133f957600080fd5b600061340784828501613144565b91505092915050565b60006020828403121561342257600080fd5b600061343084828501613159565b91505092915050565b600080600080600060a0868803121561345157600080fd5b600061345f88828901613198565b955050602086013567ffffffffffffffff81111561347c57600080fd5b613488888289016131ad565b945050604086013567ffffffffffffffff8111156134a557600080fd5b6134b1888289016131ad565b93505060606134c2888289016131d7565b92505060806134d3888289016131d7565b9150509295509295909350565b6000602082840312156134f257600080fd5b6000613500848285016131d7565b91505092915050565b6135128161410c565b82525050565b613521816140fa565b82525050565b6135308161411e565b82525050565b600061354182613fa2565b61354b8185613fb8565b935061355b8185602086016141c5565b61356481614360565b840191505092915050565b61357881614192565b82525050565b600061358982613fad565b6135938185613fc9565b93506135a38185602086016141c5565b6135ac81614360565b840191505092915050565b60006135c282613fad565b6135cc8185613fda565b93506135dc8185602086016141c5565b80840191505092915050565b600081546135f5816141f8565b6135ff8186613fc9565b9450600182166000811461361a576001811461362c5761365f565b60ff198316865260208601935061365f565b61363585613f8d565b60005b8381101561365757815481890152600182019150602081019050613638565b808801955050505b50505092915050565b6000613675602d83613fc9565b915061368082614371565b604082019050919050565b6000613698601183613fc9565b91506136a3826143c0565b602082019050919050565b60006136bb602b83613fc9565b91506136c6826143e9565b604082019050919050565b60006136de603283613fc9565b91506136e982614438565b604082019050919050565b6000613701602583613fc9565b915061370c82614487565b604082019050919050565b6000613724601c83613fc9565b915061372f826144d6565b602082019050919050565b6000613747601383613fc9565b9150613752826144ff565b602082019050919050565b600061376a602483613fc9565b915061377582614528565b604082019050919050565b600061378d601983613fc9565b915061379882614577565b602082019050919050565b60006137b0602983613fc9565b91506137bb826145a0565b604082019050919050565b60006137d3602e83613fc9565b91506137de826145ef565b604082019050919050565b60006137f6602d83613fc9565b91506138018261463e565b604082019050919050565b6000613819602083613fc9565b91506138248261468d565b602082019050919050565b600061383c601283613fc9565b9150613847826146b6565b602082019050919050565b600061385f601a83613fc9565b915061386a826146df565b602082019050919050565b6000613882601883613fc9565b915061388d82614708565b602082019050919050565b60006138a5602283613fc9565b91506138b082614731565b604082019050919050565b60006138c8602183613fc9565b91506138d382614780565b604082019050919050565b60006138eb603d83613fc9565b91506138f6826147cf565b604082019050919050565b600061390e602c83613fc9565b91506139198261481e565b604082019050919050565b6000613931603583613fc9565b915061393c8261486d565b604082019050919050565b6000613954601f83613fc9565b915061395f826148bc565b602082019050919050565b6000613977601c83613fc9565b9150613982826148e5565b602082019050919050565b61399681614188565b82525050565b60006139a882856135b7565b91506139b482846135b7565b91508190509392505050565b60006020820190506139d56000830184613518565b92915050565b60006020820190506139f06000830184613509565b92915050565b6000606082019050613a0b6000830186613518565b613a186020830185613518565b613a25604083018461398d565b949350505050565b6000608082019050613a426000830187613518565b613a4f6020830186613518565b613a5c604083018561398d565b8181036060830152613a6e8184613536565b905095945050505050565b6000602082019050613a8e6000830184613527565b92915050565b60006020820190508181036000830152613aae818461357e565b905092915050565b60006020820190508181036000830152613acf81613668565b9050919050565b60006020820190508181036000830152613aef8161368b565b9050919050565b60006020820190508181036000830152613b0f816136ae565b9050919050565b60006020820190508181036000830152613b2f816136d1565b9050919050565b60006020820190508181036000830152613b4f816136f4565b9050919050565b60006020820190508181036000830152613b6f81613717565b9050919050565b60006020820190508181036000830152613b8f8161373a565b9050919050565b60006020820190508181036000830152613baf8161375d565b9050919050565b60006020820190508181036000830152613bcf81613780565b9050919050565b60006020820190508181036000830152613bef816137a3565b9050919050565b60006020820190508181036000830152613c0f816137c6565b9050919050565b60006020820190508181036000830152613c2f816137e9565b9050919050565b60006020820190508181036000830152613c4f8161380c565b9050919050565b60006020820190508181036000830152613c6f8161382f565b9050919050565b60006020820190508181036000830152613c8f81613852565b9050919050565b60006020820190508181036000830152613caf81613875565b9050919050565b60006020820190508181036000830152613ccf81613898565b9050919050565b60006020820190508181036000830152613cef816138bb565b9050919050565b60006020820190508181036000830152613d0f816138de565b9050919050565b60006020820190508181036000830152613d2f81613901565b9050919050565b60006020820190508181036000830152613d4f81613924565b9050919050565b60006020820190508181036000830152613d6f81613947565b9050919050565b60006020820190508181036000830152613d8f8161396a565b9050919050565b6000602082019050613dab600083018461398d565b92915050565b600061010082019050613dc7600083018b61398d565b8181036020830152613dd9818a61357e565b9050613de8604083018961356f565b613df5606083018861398d565b8181036080830152613e07818761357e565b9050613e1660a083018661398d565b613e2360c0830185613509565b613e3060e0830184613527565b9998505050505050505050565b600060c082019050613e52600083018961398d565b8181036020830152613e64818861357e565b9050613e73604083018761398d565b8181036060830152613e85818661357e565b9050613e94608083018561398d565b613ea160a0830184613527565b979650505050505050565b600060a082019050613ec1600083018861398d565b8181036020830152613ed381876135e8565b9050613ee2604083018661398d565b613eef606083018561398d565b613efc6080830184613527565b9695505050505050565b6000613f10613f21565b9050613f1c828261422a565b919050565b6000604051905090565b600067ffffffffffffffff821115613f4657613f45614331565b5b613f4f82614360565b9050602081019050919050565b600067ffffffffffffffff821115613f7757613f76614331565b5b613f8082614360565b9050602081019050919050565b60008190508160005260206000209050919050565b600081519050919050565b600081519050919050565b600082825260208201905092915050565b600082825260208201905092915050565b600081905092915050565b6000613ff082614188565b9150613ffb83614188565b9250827fffffffffffffffffffffffffffffffffffffffffffffffffffffffffffffffff038211156140305761402f6142a4565b5b828201905092915050565b600061404682614188565b915061405183614188565b925082614061576140606142d3565b5b828204905092915050565b600061407782614188565b915061408283614188565b9250817fffffffffffffffffffffffffffffffffffffffffffffffffffffffffffffffff04831182151516156140bb576140ba6142a4565b5b828202905092915050565b60006140d182614188565b91506140dc83614188565b9250828210156140ef576140ee6142a4565b5b828203905092915050565b600061410582614168565b9050919050565b600061411782614168565b9050919050565b60008115159050919050565b60007fffffffff0000000000000000000000000000000000000000000000000000000082169050919050565b6000614161826140fa565b9050919050565b600073ffffffffffffffffffffffffffffffffffffffff82169050919050565b6000819050919050565b600061419d826141a4565b9050919050565b60006141af82614168565b9050919050565b82818337600083830152505050565b60005b838110156141e35780820151818401526020810190506141c8565b838111156141f2576000848401525b50505050565b6000600282049050600182168061421057607f821691505b6020821081141561422457614223614302565b5b50919050565b61423382614360565b810181811067ffffffffffffffff8211171561425257614251614331565b5b80604052505050565b600061426682614188565b91507fffffffffffffffffffffffffffffffffffffffffffffffffffffffffffffffff821415614299576142986142a4565b5b600182019050919050565b7f4e487b7100000000000000000000000000000000000000000000000000000000600052601160045260246000fd5b7f4e487b7100000000000000000000000000000000000000000000000000000000600052601260045260246000fd5b7f4e487b7100000000000000000000000000000000000000000000000000000000600052602260045260246000fd5b7f4e487b7100000000000000000000000000000000000000000000000000000000600052604160045260246000fd5b6000601f19601f8301169050919050565b7f4552433732313a2063616c6c6572206973206e6f7420746f6b656e206f776e6560008201527f72206f7220617070726f76656400000000000000000000000000000000000000602082015250565b7f6974656d20616c726561647920736f6c64000000000000000000000000000000600082015250565b7f455243373231456e756d657261626c653a206f776e657220696e646578206f7560008201527f74206f6620626f756e6473000000000000000000000000000000000000000000602082015250565b7f4552433732313a207472616e7366657220746f206e6f6e20455243373231526560008201527f63656976657220696d706c656d656e7465720000000000000000000000000000602082015250565b7f4552433732313a207472616e736665722066726f6d20696e636f72726563742060008201527f6f776e6572000000000000000000000000000000000000000000000000000000602082015250565b7f4552433732313a20746f6b656e20616c7265616479206d696e74656400000000600082015250565b7f4974656d206d7573742068617665206861736800000000000000000000000000600082015250565b7f4552433732313a207472616e7366657220746f20746865207a65726f2061646460008201527f7265737300000000000000000000000000000000000000000000000000000000602082015250565b7f4552433732313a20617070726f766520746f2063616c6c657200000000000000600082015250565b7f4552433732313a2061646472657373207a65726f206973206e6f74206120766160008201527f6c6964206f776e65720000000000000000000000000000000000000000000000602082015250565b7f45524337323155524953746f726167653a2055524920736574206f66206e6f6e60008201527f6578697374656e7420746f6b656e000000000000000000000000000000000000602082015250565b7f6e6f7420656e6f75676820657468657220746f20636f766572206974656d207060008201527f7269636520776974682066656500000000000000000000000000000000000000602082015250565b7f4552433732313a206d696e7420746f20746865207a65726f2061646472657373600082015250565b7f4974656d20646f65736e27742065786973740000000000000000000000000000600082015250565b7f4974656d206d7573742068617665206465736372697074696f6e000000000000600082015250565b7f4552433732313a20696e76616c696420746f6b656e2049440000000000000000600082015250565b7f496e69746961746f72276120616464726573732063616e206e6f74206265203060008201527f7830000000000000000000000000000000000000000000000000000000000000602082015250565b7f4552433732313a20617070726f76616c20746f2063757272656e74206f776e6560008201527f7200000000000000000000000000000000000000000000000000000000000000602082015250565b7f4552433732313a20617070726f76652063616c6c6572206973206e6f7420746f60008201527f6b656e206f776e6572206f7220617070726f76656420666f7220616c6c000000602082015250565b7f455243373231456e756d657261626c653a20676c6f62616c20696e646578206f60008201527f7574206f6620626f756e64730000000000000000000000000000000000000000602082015250565b7f455243373231456e756d657261626c653a20636f6e736563757469766520747260008201527f616e7366657273206e6f7420737570706f727465640000000000000000000000602082015250565b7f5265656e7472616e637947756172643a207265656e7472616e742063616c6c00600082015250565b7f5072696365206d7573742062652067726561746572207468616e203000000000600082015250565b614917816140fa565b811461492257600080fd5b50565b61492e8161411e565b811461493957600080fd5b50565b6149458161412a565b811461495057600080fd5b50565b61495c81614156565b811461496757600080fd5b50565b61497381614188565b811461497e57600080fd5b5056fea264697066735822122046c6e0d1dab3c82c9c6041f047bc114faf9be2a0e5acc24eb32501ef646afab164736f6c63430008020033",
  "immutableReferences": {
    "3623": [
      {
        "length": 32,
        "start": 2724
      },
      {
        "length": 32,
        "start": 4302
      }
    ],
    "3625": [
      {
        "length": 32,
        "start": 2950
      },
      {
        "length": 32,
        "start": 3254
      },
      {
        "length": 32,
        "start": 3735
      }
    ]
  },
  "source": "// SPDX-License-Identifier: MIT\npragma solidity ^0.8.2;\n\nimport \"@openzeppelin/contracts/token/ERC721/IERC721.sol\";\nimport \"@openzeppelin/contracts/security/ReentrancyGuard.sol\";\nimport \"./NFT.sol\";\n\ncontract NFTrade is NFT, ReentrancyGuard {\n  address payable public immutable feeAccount; // The account that recieves fees   \n  uint public immutable feePercent; // The fee percentage on sales\n  uint public itemCount;\n\n  constructor(uint _feePercent) {\n    feeAccount = payable(msg.sender);\n    feePercent = _feePercent;\n  }\n\n  // List items\n  mapping(uint => Item) public items;\n\n  struct Item {\n    uint itemId;\n    string hash;\n    IERC721 nft;\n    uint tokenId;\n    string description;\n    uint price;\n    address payable seller;\n    bool sold;\n  }\n\n  event Offered(\n    uint itemId,\n    string hash,\n    address indexed nft,\n    uint tokenId,\n    string description,\n    uint price,\n    address indexed seller,\n    bool sold\n  );\n\n  event Bought(\n    uint itemId,\n    string hash,\n    address indexed nft,\n    uint tokenId,\n    uint price,\n    address indexed seller,\n    address indexed buyer,\n    bool sold\n  );\n\n  // Create NFT item\n  function listItem(IERC721 _nft, string memory _hash, string memory _description, uint _tokenId, uint _price) external nonReentrant {\n    require(_price > 0, \"Price must be greater than 0\");\n\n    // Make sure item hash exists\n    require(bytes(_hash).length > 0, \"Item must have hash\");\n\n    // Make sure item description exists\n    require(bytes(_description).length > 0, \"Item must have description\");\n\n    // Make sure upploader address exists\n    require(msg.sender != address(0x0), \"Initiator'a address can not be 0x0\");\n    \n    // Increment item id\n    itemCount ++;\n\n    // Transfer nft \n    _nft.transferFrom(msg.sender, address(this), _tokenId);\n\n    // Add new item to items mapping\n    items[itemCount] = Item(\n        itemCount,\n        _hash,\n        _nft,\n        _tokenId,\n        _description,\n        _price,\n        payable(msg.sender),\n        false\n    );\n\n    // Trigger an event\n    emit Offered(itemCount, _hash, address(this), _tokenId, _description, _price, msg.sender, false);\n  }\n\n  function getFeePercent() public view returns(uint) {\n    return(feePercent);\n  }\n  \n  function purchaseItem(uint _itemId) external payable nonReentrant {\n    uint _totalPrice = getTotalPrice(_itemId);\n    Item storage item = items[_itemId];\n    require(_itemId > 0 && _itemId <= itemCount, \"Item doesn't exist\");\n    require(msg.value >= _totalPrice, \"not enough ether to cover item price with fee\");\n    require(!item.sold, \"item already sold\");\n\n    // Pay seller and feeAccount\n    item.seller.transfer(item.price);\n    feeAccount.transfer(_totalPrice - item.price);\n\n    // Update item to sold\n    item.sold = true;\n\n    // Transfer nft to buyer\n    item.nft.transferFrom(address(this), msg.sender, item.tokenId);\n\n    emit Bought(_itemId, item.hash, address(this), item.tokenId, _totalPrice, item.seller, msg.sender, true);\n  }\n\n  function getTotalPrice(uint _itemId) public returns(uint) {\n    return(items[_itemId].price = items[_itemId].price * (100 + feePercent)/100);\n  }\n}",
  "sourcePath": "/Users/a/Desktop/Programming/DEFI/NFTrade/src/contracts/NFTrade.sol",
  "compiler": {
    "name": "solc",
    "version": "0.8.2+commit.661d1103.Emscripten.clang"
  },
  "schemaVersion": "3.4.10",
  "updatedAt": "2022-12-11T10:06:48.070Z",
  "networkType": "ethereum",
  "devdoc": {
    "kind": "dev",
    "methods": {
      "approve(address,uint256)": {
        "details": "See {IERC721-approve}."
      },
      "balanceOf(address)": {
        "details": "See {IERC721-balanceOf}."
      },
      "getApproved(uint256)": {
        "details": "See {IERC721-getApproved}."
      },
      "isApprovedForAll(address,address)": {
        "details": "See {IERC721-isApprovedForAll}."
      },
      "name()": {
        "details": "See {IERC721Metadata-name}."
      },
      "ownerOf(uint256)": {
        "details": "See {IERC721-ownerOf}."
      },
      "safeTransferFrom(address,address,uint256)": {
        "details": "See {IERC721-safeTransferFrom}."
      },
      "safeTransferFrom(address,address,uint256,bytes)": {
        "details": "See {IERC721-safeTransferFrom}."
      },
      "setApprovalForAll(address,bool)": {
        "details": "See {IERC721-setApprovalForAll}."
      },
      "symbol()": {
        "details": "See {IERC721Metadata-symbol}."
      },
      "tokenByIndex(uint256)": {
        "details": "See {IERC721Enumerable-tokenByIndex}."
      },
      "tokenOfOwnerByIndex(address,uint256)": {
        "details": "See {IERC721Enumerable-tokenOfOwnerByIndex}."
      },
      "totalSupply()": {
        "details": "See {IERC721Enumerable-totalSupply}."
      },
      "transferFrom(address,address,uint256)": {
        "details": "See {IERC721-transferFrom}."
      }
    },
    "version": 1
  },
  "userdoc": {
    "kind": "user",
    "methods": {},
    "version": 1
  }
}