{
  "contractName": "NFTrade",
  "abi": [
    {
      "inputs": [
        {
          "internalType": "uint256",
          "name": "_feePercent",
          "type": "uint256"
        }
      ],
      "stateMutability": "nonpayable",
      "type": "constructor"
    },
    {
      "anonymous": false,
      "inputs": [
        {
          "indexed": false,
          "internalType": "uint256",
          "name": "itemId",
          "type": "uint256"
        },
        {
          "indexed": false,
          "internalType": "string",
          "name": "hash",
          "type": "string"
        },
        {
          "indexed": true,
          "internalType": "address",
          "name": "nft",
          "type": "address"
        },
        {
          "indexed": false,
          "internalType": "uint256",
          "name": "tokenId",
          "type": "uint256"
        },
        {
          "indexed": false,
          "internalType": "uint256",
          "name": "price",
          "type": "uint256"
        },
        {
          "indexed": true,
          "internalType": "address",
          "name": "seller",
          "type": "address"
        },
        {
          "indexed": true,
          "internalType": "address",
          "name": "buyer",
          "type": "address"
        }
      ],
      "name": "Bought",
      "type": "event"
    },
    {
      "anonymous": false,
      "inputs": [
        {
          "indexed": false,
          "internalType": "uint256",
          "name": "itemId",
          "type": "uint256"
        },
        {
          "indexed": false,
          "internalType": "string",
          "name": "hash",
          "type": "string"
        },
        {
          "indexed": true,
          "internalType": "address",
          "name": "nft",
          "type": "address"
        },
        {
          "indexed": false,
          "internalType": "uint256",
          "name": "tokenId",
          "type": "uint256"
        },
        {
          "indexed": false,
          "internalType": "string",
          "name": "description",
          "type": "string"
        },
        {
          "indexed": false,
          "internalType": "uint256",
          "name": "price",
          "type": "uint256"
        },
        {
          "indexed": true,
          "internalType": "address",
          "name": "seller",
          "type": "address"
        }
      ],
      "name": "Offered",
      "type": "event"
    },
    {
      "inputs": [],
      "name": "feeAccount",
      "outputs": [
        {
          "internalType": "address payable",
          "name": "",
          "type": "address"
        }
      ],
      "stateMutability": "view",
      "type": "function",
      "constant": true
    },
    {
      "inputs": [],
      "name": "feePercent",
      "outputs": [
        {
          "internalType": "uint256",
          "name": "",
          "type": "uint256"
        }
      ],
      "stateMutability": "view",
      "type": "function",
      "constant": true
    },
    {
      "inputs": [],
      "name": "itemCount",
      "outputs": [
        {
          "internalType": "uint256",
          "name": "",
          "type": "uint256"
        }
      ],
      "stateMutability": "view",
      "type": "function",
      "constant": true
    },
    {
      "inputs": [
        {
          "internalType": "uint256",
          "name": "",
          "type": "uint256"
        }
      ],
      "name": "items",
      "outputs": [
        {
          "internalType": "uint256",
          "name": "itemId",
          "type": "uint256"
        },
        {
          "internalType": "string",
          "name": "hash",
          "type": "string"
        },
        {
          "internalType": "contract IERC721",
          "name": "nft",
          "type": "address"
        },
        {
          "internalType": "uint256",
          "name": "tokenId",
          "type": "uint256"
        },
        {
          "internalType": "string",
          "name": "description",
          "type": "string"
        },
        {
          "internalType": "uint256",
          "name": "price",
          "type": "uint256"
        },
        {
          "internalType": "address payable",
          "name": "seller",
          "type": "address"
        },
        {
          "internalType": "bool",
          "name": "sold",
          "type": "bool"
        }
      ],
      "stateMutability": "view",
      "type": "function",
      "constant": true
    },
    {
      "inputs": [
        {
          "internalType": "contract IERC721",
          "name": "_nft",
          "type": "address"
        },
        {
          "internalType": "string",
          "name": "_hash",
          "type": "string"
        },
        {
          "internalType": "string",
          "name": "_description",
          "type": "string"
        },
        {
          "internalType": "uint256",
          "name": "_tokenId",
          "type": "uint256"
        },
        {
          "internalType": "uint256",
          "name": "_price",
          "type": "uint256"
        }
      ],
      "name": "listItem",
      "outputs": [],
      "stateMutability": "nonpayable",
      "type": "function"
    },
    {
      "inputs": [],
      "name": "getFeePercent",
      "outputs": [
        {
          "internalType": "uint256",
          "name": "",
          "type": "uint256"
        }
      ],
      "stateMutability": "view",
      "type": "function",
      "constant": true
    },
    {
      "inputs": [
        {
          "internalType": "uint256",
          "name": "_itemId",
          "type": "uint256"
        }
      ],
      "name": "purchaseItem",
      "outputs": [],
      "stateMutability": "payable",
      "type": "function",
      "payable": true
    },
    {
      "inputs": [
        {
          "internalType": "uint256",
          "name": "_itemId",
          "type": "uint256"
        }
      ],
      "name": "getTotalPrice",
      "outputs": [
        {
          "internalType": "uint256",
          "name": "",
          "type": "uint256"
        }
      ],
      "stateMutability": "nonpayable",
      "type": "function"
    }
  ],
  "bytecode": "0x60c06040523480156200001157600080fd5b50604051620016283803806200162883398181016040528101906200003791906200009c565b60016000819055503373ffffffffffffffffffffffffffffffffffffffff1660808173ffffffffffffffffffffffffffffffffffffffff1660601b815250508060a0818152505050620000ec565b6000815190506200009681620000d2565b92915050565b600060208284031215620000af57600080fd5b6000620000bf8482850162000085565b91505092915050565b6000819050919050565b620000dd81620000c8565b8114620000e957600080fd5b50565b60805160601c60a0516114fe6200012a6000396000818161021e0152818161024401526104130152600081816101f4015261063101526114fe6000f3fe60806040526004361061007b5760003560e01c8063bfb231d21161004e578063bfb231d21461012c578063ca7dd37514610170578063d38ea5bf146101ad578063ef35ae03146101c95761007b565b806365e17c9d146100805780636bfb0d01146100ab5780637fd6f15c146100d6578063be74264d14610101575b600080fd5b34801561008c57600080fd5b506100956101f2565b6040516100a29190610e23565b60405180910390f35b3480156100b757600080fd5b506100c0610216565b6040516100cd9190610f15565b60405180910390f35b3480156100e257600080fd5b506100eb61021c565b6040516100f89190610f15565b60405180910390f35b34801561010d57600080fd5b50610116610240565b6040516101239190610f15565b60405180910390f35b34801561013857600080fd5b50610153600480360381019061014e9190610cb8565b610268565b604051610167989796959493929190610f30565b60405180910390f35b34801561017c57600080fd5b5061019760048036038101906101929190610cb8565b61040d565b6040516101a49190610f15565b60405180910390f35b6101c760048036038101906101c29190610cb8565b610468565b005b3480156101d557600080fd5b506101f060048036038101906101eb9190610c11565b610766565b005b7f000000000000000000000000000000000000000000000000000000000000000081565b60015481565b7f000000000000000000000000000000000000000000000000000000000000000081565b60007f0000000000000000000000000000000000000000000000000000000000000000905090565b60026020528060005260406000206000915090508060000154908060010180546102919061122e565b80601f01602080910402602001604051908101604052809291908181526020018280546102bd9061122e565b801561030a5780601f106102df5761010080835404028352916020019161030a565b820191906000526020600020905b8154815290600101906020018083116102ed57829003601f168201915b5050505050908060020160009054906101000a900473ffffffffffffffffffffffffffffffffffffffff169080600301549080600401805461034b9061122e565b80601f01602080910402602001604051908101604052809291908181526020018280546103779061122e565b80156103c45780601f10610399576101008083540402835291602001916103c4565b820191906000526020600020905b8154815290600101906020018083116103a757829003601f168201915b5050505050908060050154908060060160009054906101000a900473ffffffffffffffffffffffffffffffffffffffff16908060060160149054906101000a900460ff16905088565b600060647f0000000000000000000000000000000000000000000000000000000000000000606461043e919061108f565b61044891906110e5565b600260008481526020019081526020016000206005018190559050919050565b600260005414156104ae576040517f08c379a00000000000000000000000000000000000000000000000000000000081526004016104a590610ed5565b60405180910390fd5b600260008190555060006104c18261040d565b905060006002600084815260200190815260200160002090506000831180156104ec57506001548311155b61052b576040517f08c379a000000000000000000000000000000000000000000000000000000000815260040161052290610eb5565b60405180910390fd5b8134101561056e576040517f08c379a000000000000000000000000000000000000000000000000000000000815260040161056590610e95565b60405180910390fd5b8060060160149054906101000a900460ff16156105c0576040517f08c379a00000000000000000000000000000000000000000000000000000000081526004016105b790610e75565b60405180910390fd5b8060060160009054906101000a900473ffffffffffffffffffffffffffffffffffffffff1673ffffffffffffffffffffffffffffffffffffffff166108fc82600501549081150290604051600060405180830381858888f1935050505015801561062e573d6000803e3d6000fd5b507f000000000000000000000000000000000000000000000000000000000000000073ffffffffffffffffffffffffffffffffffffffff166108fc8260050154846106799190611116565b9081150290604051600060405180830381858888f193505050501580156106a4573d6000803e3d6000fd5b5060018160060160146101000a81548160ff0219169083151502179055508060020160009054906101000a900473ffffffffffffffffffffffffffffffffffffffff1673ffffffffffffffffffffffffffffffffffffffff166323b872dd303384600301546040518463ffffffff1660e01b815260040161072793929190610e3e565b600060405180830381600087803b15801561074157600080fd5b505af1158015610755573d6000803e3d6000fd5b505050505050600160008190555050565b600260005414156107ac576040517f08c379a00000000000000000000000000000000000000000000000000000000081526004016107a390610ed5565b60405180910390fd5b6002600081905550600081116107f7576040517f08c379a00000000000000000000000000000000000000000000000000000000081526004016107ee90610ef5565b60405180910390fd5b600084511161080557600080fd5b600083511161081357600080fd5b600073ffffffffffffffffffffffffffffffffffffffff163373ffffffffffffffffffffffffffffffffffffffff16141561084d57600080fd5b6001600081548092919061086090611291565b91905055508473ffffffffffffffffffffffffffffffffffffffff166323b872dd3330856040518463ffffffff1660e01b81526004016108a293929190610e3e565b600060405180830381600087803b1580156108bc57600080fd5b505af11580156108d0573d6000803e3d6000fd5b5050505060405180610100016040528060015481526020018581526020018673ffffffffffffffffffffffffffffffffffffffff1681526020018381526020018481526020018281526020013373ffffffffffffffffffffffffffffffffffffffff1681526020016000151581525060026000600154815260200190815260200160002060008201518160000155602082015181600101908051906020019061097a929190610adc565b5060408201518160020160006101000a81548173ffffffffffffffffffffffffffffffffffffffff021916908373ffffffffffffffffffffffffffffffffffffffff1602179055506060820151816003015560808201518160040190805190602001906109e8929190610adc565b5060a0820151816005015560c08201518160060160006101000a81548173ffffffffffffffffffffffffffffffffffffffff021916908373ffffffffffffffffffffffffffffffffffffffff16021790555060e08201518160060160146101000a81548160ff0219169083151502179055509050503373ffffffffffffffffffffffffffffffffffffffff163073ffffffffffffffffffffffffffffffffffffffff167fe2f47d282f74dbf735132b24b72a3101c33a4746cf5f42bf13fbfad5636fe3796001548786886001604051610ac5959493929190610fbc565b60405180910390a360016000819055505050505050565b828054610ae89061122e565b90600052602060002090601f016020900481019282610b0a5760008555610b51565b82601f10610b2357805160ff1916838001178555610b51565b82800160010185558215610b51579182015b82811115610b50578251825591602001919060010190610b35565b5b509050610b5e9190610b62565b5090565b5b80821115610b7b576000816000905550600101610b63565b5090565b6000610b92610b8d84611042565b61101d565b905082815260208101848484011115610baa57600080fd5b610bb58482856111ec565b509392505050565b600081359050610bcc8161149a565b92915050565b600082601f830112610be357600080fd5b8135610bf3848260208601610b7f565b91505092915050565b600081359050610c0b816114b1565b92915050565b600080600080600060a08688031215610c2957600080fd5b6000610c3788828901610bbd565b955050602086013567ffffffffffffffff811115610c5457600080fd5b610c6088828901610bd2565b945050604086013567ffffffffffffffff811115610c7d57600080fd5b610c8988828901610bd2565b9350506060610c9a88828901610bfc565b9250506080610cab88828901610bfc565b9150509295509295909350565b600060208284031215610cca57600080fd5b6000610cd884828501610bfc565b91505092915050565b610cea8161115c565b82525050565b610cf98161114a565b82525050565b610d088161116e565b82525050565b610d17816111b6565b82525050565b610d26816111da565b82525050565b6000610d3782611073565b610d41818561107e565b9350610d518185602086016111fb565b610d5a81611396565b840191505092915050565b6000610d7260118361107e565b9150610d7d826113a7565b602082019050919050565b6000610d95602d8361107e565b9150610da0826113d0565b604082019050919050565b6000610db860128361107e565b9150610dc38261141f565b602082019050919050565b6000610ddb601f8361107e565b9150610de682611448565b602082019050919050565b6000610dfe601c8361107e565b9150610e0982611471565b602082019050919050565b610e1d816111ac565b82525050565b6000602082019050610e386000830184610ce1565b92915050565b6000606082019050610e536000830186610cf0565b610e606020830185610cf0565b610e6d6040830184610e14565b949350505050565b60006020820190508181036000830152610e8e81610d65565b9050919050565b60006020820190508181036000830152610eae81610d88565b9050919050565b60006020820190508181036000830152610ece81610dab565b9050919050565b60006020820190508181036000830152610eee81610dce565b9050919050565b60006020820190508181036000830152610f0e81610df1565b9050919050565b6000602082019050610f2a6000830184610e14565b92915050565b600061010082019050610f46600083018b610e14565b8181036020830152610f58818a610d2c565b9050610f676040830189610d0e565b610f746060830188610e14565b8181036080830152610f868187610d2c565b9050610f9560a0830186610e14565b610fa260c0830185610ce1565b610faf60e0830184610cff565b9998505050505050505050565b600060a082019050610fd16000830188610e14565b8181036020830152610fe38187610d2c565b9050610ff26040830186610e14565b81810360608301526110048185610d2c565b90506110136080830184610d1d565b9695505050505050565b6000611027611038565b90506110338282611260565b919050565b6000604051905090565b600067ffffffffffffffff82111561105d5761105c611367565b5b61106682611396565b9050602081019050919050565b600081519050919050565b600082825260208201905092915050565b600061109a826111ac565b91506110a5836111ac565b9250827fffffffffffffffffffffffffffffffffffffffffffffffffffffffffffffffff038211156110da576110d96112da565b5b828201905092915050565b60006110f0826111ac565b91506110fb836111ac565b92508261110b5761110a611309565b5b828204905092915050565b6000611121826111ac565b915061112c836111ac565b92508282101561113f5761113e6112da565b5b828203905092915050565b60006111558261118c565b9050919050565b60006111678261118c565b9050919050565b60008115159050919050565b60006111858261114a565b9050919050565b600073ffffffffffffffffffffffffffffffffffffffff82169050919050565b6000819050919050565b60006111c1826111c8565b9050919050565b60006111d38261118c565b9050919050565b60006111e5826111ac565b9050919050565b82818337600083830152505050565b60005b838110156112195780820151818401526020810190506111fe565b83811115611228576000848401525b50505050565b6000600282049050600182168061124657607f821691505b6020821081141561125a57611259611338565b5b50919050565b61126982611396565b810181811067ffffffffffffffff8211171561128857611287611367565b5b80604052505050565b600061129c826111ac565b91507fffffffffffffffffffffffffffffffffffffffffffffffffffffffffffffffff8214156112cf576112ce6112da565b5b600182019050919050565b7f4e487b7100000000000000000000000000000000000000000000000000000000600052601160045260246000fd5b7f4e487b7100000000000000000000000000000000000000000000000000000000600052601260045260246000fd5b7f4e487b7100000000000000000000000000000000000000000000000000000000600052602260045260246000fd5b7f4e487b7100000000000000000000000000000000000000000000000000000000600052604160045260246000fd5b6000601f19601f8301169050919050565b7f6974656d20616c726561647920736f6c64000000000000000000000000000000600082015250565b7f6e6f7420656e6f75676820657468657220746f20636f766572206974656d207060008201527f7269636520776974682066656500000000000000000000000000000000000000602082015250565b7f4974656d20646f65736e27742065786973740000000000000000000000000000600082015250565b7f5265656e7472616e637947756172643a207265656e7472616e742063616c6c00600082015250565b7f5072696365206d7573742062652067726561746572207468616e203000000000600082015250565b6114a38161117a565b81146114ae57600080fd5b50565b6114ba816111ac565b81146114c557600080fd5b5056fea26469706673582212208cb8979c54270e3b03d5e8f27561d9ff8d0d5c04b71ffe7783b7036ceb2ce47364736f6c63430008020033",
  "immutableReferences": {
    "1857": [
      {
        "length": 32,
        "start": 500
      },
      {
        "length": 32,
        "start": 1585
      }
    ],
    "1859": [
      {
        "length": 32,
        "start": 542
      },
      {
        "length": 32,
        "start": 580
      },
      {
        "length": 32,
        "start": 1043
      }
    ]
  },
  "source": "// SPDX-License-Identifier: MIT\r\npragma solidity ^0.8.2;\r\n\r\nimport \"@openzeppelin/contracts/token/ERC721/IERC721.sol\";\r\nimport \"@openzeppelin/contracts/security/ReentrancyGuard.sol\";\r\n\r\ncontract NFTrade is ReentrancyGuard {\r\n  address payable public immutable feeAccount; // The account that recieves fees   \r\n  uint public immutable feePercent; // The fee percentage on sales\r\n  uint public itemCount;\r\n\r\n  constructor(uint _feePercent) {\r\n    feeAccount = payable(msg.sender);\r\n    feePercent = _feePercent;\r\n  }\r\n\r\n  // List items\r\n  mapping(uint => Item) public items;\r\n\r\n  struct Item {\r\n    uint itemId;\r\n    string hash;\r\n    IERC721 nft;\r\n    uint tokenId;\r\n    string description;\r\n    uint price;\r\n    address payable seller;\r\n    bool sold;\r\n  }\r\n\r\n  event Offered(\r\n    uint itemId,\r\n    string hash,\r\n    address indexed nft,\r\n    uint tokenId,\r\n    string description,\r\n    uint price,\r\n    address indexed seller\r\n  );\r\n\r\n  event Bought(\r\n    uint itemId,\r\n    string hash,\r\n    address indexed nft,\r\n    uint tokenId,\r\n    uint price,\r\n    address indexed seller,\r\n    address indexed buyer\r\n  );\r\n\r\n  // Create NFT item\r\n  function listItem(IERC721 _nft, string memory _hash, string memory _description, uint _tokenId, uint _price) external nonReentrant {\r\n    require(_price > 0, \"Price must be greater than 0\");\r\n\r\n    // Make sure item hash exists\r\n    require(bytes(_hash).length > 0);\r\n\r\n    // Make sure item description exists\r\n    require(bytes(_description).length > 0);\r\n\r\n    // Make sure upploader address exists\r\n    require(msg.sender != address(0x0));\r\n    \r\n    // Increment item id\r\n    itemCount ++;\r\n\r\n    // Transfer nft \r\n    _nft.transferFrom(msg.sender, address(this), _tokenId);\r\n\r\n    // Add new item to items mapping\r\n    items[itemCount] = Item(\r\n        itemCount,\r\n        _hash,\r\n        _nft,\r\n        _tokenId,\r\n        _description,\r\n        _price,\r\n        payable(msg.sender),\r\n        false\r\n    );\r\n\r\n    // Trigger an event\r\n    emit Offered(itemCount, _hash, address(this), _tokenId, _description, 1, msg.sender);\r\n  }\r\n\r\n  function getFeePercent() public view returns(uint) {\r\n    return(feePercent);\r\n  }\r\n  \r\n  function purchaseItem(uint _itemId) external payable nonReentrant {\r\n    uint _totalPrice = getTotalPrice(_itemId);\r\n    Item storage item = items[_itemId];\r\n    require(_itemId > 0 && _itemId <= itemCount, \"Item doesn't exist\");\r\n    require(msg.value >= _totalPrice, \"not enough ether to cover item price with fee\");\r\n    require(!item.sold, \"item already sold\");\r\n\r\n    // Pay seller and feeAccount\r\n    item.seller.transfer(item.price);\r\n    feeAccount.transfer(_totalPrice - item.price);\r\n\r\n    // Update item to sold\r\n    item.sold = true;\r\n\r\n    // Transfer nft to buyer\r\n    item.nft.transferFrom(address(this), msg.sender, item.tokenId);\r\n  }\r\n\r\n  function getTotalPrice(uint _itemId) public returns(uint) {\r\n    return(items[_itemId].price = (100 + feePercent)/100);\r\n  }\r\n}",
  "sourcePath": "E:\\Programming\\DEFIstudy\\NFTrade\\src\\contracts\\NFTrade.sol",
  "compiler": {
    "name": "solc",
    "version": "0.8.2+commit.661d1103.Emscripten.clang"
  },
  "schemaVersion": "3.4.7",
  "updatedAt": "2022-10-11T17:46:22.337Z",
  "networkType": "ethereum",
  "devdoc": {
    "kind": "dev",
    "methods": {},
    "version": 1
  },
  "userdoc": {
    "kind": "user",
    "methods": {},
    "version": 1
  }
}