{
  "contractName": "NFTrade",
  "abi": [
    {
      "inputs": [
        {
          "internalType": "uint256",
          "name": "_feePercent",
          "type": "uint256"
        }
      ],
      "stateMutability": "nonpayable",
      "type": "constructor"
    },
    {
      "anonymous": false,
      "inputs": [
        {
          "indexed": true,
          "internalType": "address",
          "name": "owner",
          "type": "address"
        },
        {
          "indexed": true,
          "internalType": "address",
          "name": "approved",
          "type": "address"
        },
        {
          "indexed": true,
          "internalType": "uint256",
          "name": "tokenId",
          "type": "uint256"
        }
      ],
      "name": "Approval",
      "type": "event"
    },
    {
      "anonymous": false,
      "inputs": [
        {
          "indexed": true,
          "internalType": "address",
          "name": "owner",
          "type": "address"
        },
        {
          "indexed": true,
          "internalType": "address",
          "name": "operator",
          "type": "address"
        },
        {
          "indexed": false,
          "internalType": "bool",
          "name": "approved",
          "type": "bool"
        }
      ],
      "name": "ApprovalForAll",
      "type": "event"
    },
    {
      "anonymous": false,
      "inputs": [
        {
          "indexed": false,
          "internalType": "uint256",
          "name": "itemId",
          "type": "uint256"
        },
        {
          "indexed": false,
          "internalType": "string",
          "name": "hash",
          "type": "string"
        },
        {
          "indexed": true,
          "internalType": "address",
          "name": "nft",
          "type": "address"
        },
        {
          "indexed": false,
          "internalType": "uint256",
          "name": "tokenId",
          "type": "uint256"
        },
        {
          "indexed": false,
          "internalType": "uint256",
          "name": "price",
          "type": "uint256"
        },
        {
          "indexed": true,
          "internalType": "address",
          "name": "seller",
          "type": "address"
        },
        {
          "indexed": true,
          "internalType": "address",
          "name": "buyer",
          "type": "address"
        }
      ],
      "name": "Bought",
      "type": "event"
    },
    {
      "anonymous": false,
      "inputs": [
        {
          "indexed": false,
          "internalType": "uint256",
          "name": "itemId",
          "type": "uint256"
        },
        {
          "indexed": false,
          "internalType": "string",
          "name": "hash",
          "type": "string"
        },
        {
          "indexed": true,
          "internalType": "address",
          "name": "nft",
          "type": "address"
        },
        {
          "indexed": false,
          "internalType": "uint256",
          "name": "tokenId",
          "type": "uint256"
        },
        {
          "indexed": false,
          "internalType": "string",
          "name": "description",
          "type": "string"
        },
        {
          "indexed": false,
          "internalType": "uint256",
          "name": "price",
          "type": "uint256"
        },
        {
          "indexed": true,
          "internalType": "address",
          "name": "seller",
          "type": "address"
        }
      ],
      "name": "Offered",
      "type": "event"
    },
    {
      "anonymous": false,
      "inputs": [
        {
          "indexed": true,
          "internalType": "address",
          "name": "from",
          "type": "address"
        },
        {
          "indexed": true,
          "internalType": "address",
          "name": "to",
          "type": "address"
        },
        {
          "indexed": true,
          "internalType": "uint256",
          "name": "tokenId",
          "type": "uint256"
        }
      ],
      "name": "Transfer",
      "type": "event"
    },
    {
      "inputs": [
        {
          "internalType": "address",
          "name": "to",
          "type": "address"
        },
        {
          "internalType": "uint256",
          "name": "tokenId",
          "type": "uint256"
        }
      ],
      "name": "approve",
      "outputs": [],
      "stateMutability": "nonpayable",
      "type": "function"
    },
    {
      "inputs": [
        {
          "internalType": "address",
          "name": "owner",
          "type": "address"
        }
      ],
      "name": "balanceOf",
      "outputs": [
        {
          "internalType": "uint256",
          "name": "",
          "type": "uint256"
        }
      ],
      "stateMutability": "view",
      "type": "function",
      "constant": true
    },
    {
      "inputs": [],
      "name": "feeAccount",
      "outputs": [
        {
          "internalType": "address payable",
          "name": "",
          "type": "address"
        }
      ],
      "stateMutability": "view",
      "type": "function",
      "constant": true
    },
    {
      "inputs": [],
      "name": "feePercent",
      "outputs": [
        {
          "internalType": "uint256",
          "name": "",
          "type": "uint256"
        }
      ],
      "stateMutability": "view",
      "type": "function",
      "constant": true
    },
    {
      "inputs": [
        {
          "internalType": "uint256",
          "name": "tokenId",
          "type": "uint256"
        }
      ],
      "name": "getApproved",
      "outputs": [
        {
          "internalType": "address",
          "name": "",
          "type": "address"
        }
      ],
      "stateMutability": "view",
      "type": "function",
      "constant": true
    },
    {
      "inputs": [
        {
          "internalType": "address",
          "name": "owner",
          "type": "address"
        },
        {
          "internalType": "address",
          "name": "operator",
          "type": "address"
        }
      ],
      "name": "isApprovedForAll",
      "outputs": [
        {
          "internalType": "bool",
          "name": "",
          "type": "bool"
        }
      ],
      "stateMutability": "view",
      "type": "function",
      "constant": true
    },
    {
      "inputs": [],
      "name": "itemCount",
      "outputs": [
        {
          "internalType": "uint256",
          "name": "",
          "type": "uint256"
        }
      ],
      "stateMutability": "view",
      "type": "function",
      "constant": true
    },
    {
      "inputs": [
        {
          "internalType": "uint256",
          "name": "",
          "type": "uint256"
        }
      ],
      "name": "items",
      "outputs": [
        {
          "internalType": "uint256",
          "name": "itemId",
          "type": "uint256"
        },
        {
          "internalType": "string",
          "name": "hash",
          "type": "string"
        },
        {
          "internalType": "contract IERC721",
          "name": "nft",
          "type": "address"
        },
        {
          "internalType": "uint256",
          "name": "tokenId",
          "type": "uint256"
        },
        {
          "internalType": "string",
          "name": "description",
          "type": "string"
        },
        {
          "internalType": "uint256",
          "name": "price",
          "type": "uint256"
        },
        {
          "internalType": "address payable",
          "name": "seller",
          "type": "address"
        },
        {
          "internalType": "bool",
          "name": "sold",
          "type": "bool"
        }
      ],
      "stateMutability": "view",
      "type": "function",
      "constant": true
    },
    {
      "inputs": [
        {
          "internalType": "address",
          "name": "_to",
          "type": "address"
        },
        {
          "internalType": "string",
          "name": "_tokenURI",
          "type": "string"
        }
      ],
      "name": "mint",
      "outputs": [
        {
          "internalType": "uint256",
          "name": "",
          "type": "uint256"
        }
      ],
      "stateMutability": "nonpayable",
      "type": "function"
    },
    {
      "inputs": [],
      "name": "name",
      "outputs": [
        {
          "internalType": "string",
          "name": "",
          "type": "string"
        }
      ],
      "stateMutability": "view",
      "type": "function",
      "constant": true
    },
    {
      "inputs": [
        {
          "internalType": "uint256",
          "name": "tokenId",
          "type": "uint256"
        }
      ],
      "name": "ownerOf",
      "outputs": [
        {
          "internalType": "address",
          "name": "",
          "type": "address"
        }
      ],
      "stateMutability": "view",
      "type": "function",
      "constant": true
    },
    {
      "inputs": [
        {
          "internalType": "address",
          "name": "from",
          "type": "address"
        },
        {
          "internalType": "address",
          "name": "to",
          "type": "address"
        },
        {
          "internalType": "uint256",
          "name": "tokenId",
          "type": "uint256"
        }
      ],
      "name": "safeTransferFrom",
      "outputs": [],
      "stateMutability": "nonpayable",
      "type": "function"
    },
    {
      "inputs": [
        {
          "internalType": "address",
          "name": "from",
          "type": "address"
        },
        {
          "internalType": "address",
          "name": "to",
          "type": "address"
        },
        {
          "internalType": "uint256",
          "name": "tokenId",
          "type": "uint256"
        },
        {
          "internalType": "bytes",
          "name": "_data",
          "type": "bytes"
        }
      ],
      "name": "safeTransferFrom",
      "outputs": [],
      "stateMutability": "nonpayable",
      "type": "function"
    },
    {
      "inputs": [
        {
          "internalType": "address",
          "name": "operator",
          "type": "address"
        },
        {
          "internalType": "bool",
          "name": "approved",
          "type": "bool"
        }
      ],
      "name": "setApprovalForAll",
      "outputs": [],
      "stateMutability": "nonpayable",
      "type": "function"
    },
    {
      "inputs": [
        {
          "internalType": "bytes4",
          "name": "interfaceId",
          "type": "bytes4"
        }
      ],
      "name": "supportsInterface",
      "outputs": [
        {
          "internalType": "bool",
          "name": "",
          "type": "bool"
        }
      ],
      "stateMutability": "view",
      "type": "function",
      "constant": true
    },
    {
      "inputs": [],
      "name": "symbol",
      "outputs": [
        {
          "internalType": "string",
          "name": "",
          "type": "string"
        }
      ],
      "stateMutability": "view",
      "type": "function",
      "constant": true
    },
    {
      "inputs": [
        {
          "internalType": "uint256",
          "name": "index",
          "type": "uint256"
        }
      ],
      "name": "tokenByIndex",
      "outputs": [
        {
          "internalType": "uint256",
          "name": "",
          "type": "uint256"
        }
      ],
      "stateMutability": "view",
      "type": "function",
      "constant": true
    },
    {
      "inputs": [
        {
          "internalType": "address",
          "name": "owner",
          "type": "address"
        },
        {
          "internalType": "uint256",
          "name": "index",
          "type": "uint256"
        }
      ],
      "name": "tokenOfOwnerByIndex",
      "outputs": [
        {
          "internalType": "uint256",
          "name": "",
          "type": "uint256"
        }
      ],
      "stateMutability": "view",
      "type": "function",
      "constant": true
    },
    {
      "inputs": [
        {
          "internalType": "uint256",
          "name": "tokenId",
          "type": "uint256"
        }
      ],
      "name": "tokenURI",
      "outputs": [
        {
          "internalType": "string",
          "name": "",
          "type": "string"
        }
      ],
      "stateMutability": "view",
      "type": "function",
      "constant": true
    },
    {
      "inputs": [],
      "name": "totalSupply",
      "outputs": [
        {
          "internalType": "uint256",
          "name": "",
          "type": "uint256"
        }
      ],
      "stateMutability": "view",
      "type": "function",
      "constant": true
    },
    {
      "inputs": [
        {
          "internalType": "address",
          "name": "from",
          "type": "address"
        },
        {
          "internalType": "address",
          "name": "to",
          "type": "address"
        },
        {
          "internalType": "uint256",
          "name": "tokenId",
          "type": "uint256"
        }
      ],
      "name": "transferFrom",
      "outputs": [],
      "stateMutability": "nonpayable",
      "type": "function"
    },
    {
      "inputs": [
        {
          "internalType": "contract IERC721",
          "name": "_nft",
          "type": "address"
        },
        {
          "internalType": "string",
          "name": "_hash",
          "type": "string"
        },
        {
          "internalType": "string",
          "name": "_description",
          "type": "string"
        },
        {
          "internalType": "uint256",
          "name": "_tokenId",
          "type": "uint256"
        },
        {
          "internalType": "uint256",
          "name": "_price",
          "type": "uint256"
        }
      ],
      "name": "listItem",
      "outputs": [],
      "stateMutability": "nonpayable",
      "type": "function"
    },
    {
      "inputs": [],
      "name": "getFeePercent",
      "outputs": [
        {
          "internalType": "uint256",
          "name": "",
          "type": "uint256"
        }
      ],
      "stateMutability": "view",
      "type": "function",
      "constant": true
    },
    {
      "inputs": [
        {
          "internalType": "uint256",
          "name": "_itemId",
          "type": "uint256"
        }
      ],
      "name": "purchaseItem",
      "outputs": [],
      "stateMutability": "payable",
      "type": "function",
      "payable": true
    },
    {
      "inputs": [
        {
          "internalType": "uint256",
          "name": "_itemId",
          "type": "uint256"
        }
      ],
      "name": "getTotalPrice",
      "outputs": [
        {
          "internalType": "uint256",
          "name": "",
          "type": "uint256"
        }
      ],
      "stateMutability": "nonpayable",
      "type": "function"
    }
  ],
  "bytecode": "0x60c06040526000600c553480156200001657600080fd5b506040516200498e3803806200498e83398181016040528101906200003c9190620001f1565b6040518060400160405280600b81526020017f4e465472616465204e46540000000000000000000000000000000000000000008152506040518060400160405280600781526020017f4e465452414445000000000000000000000000000000000000000000000000008152508160009080519060200190620000c09291906200012a565b508060019080519060200190620000d99291906200012a565b5050506001600b819055503373ffffffffffffffffffffffffffffffffffffffff1660808173ffffffffffffffffffffffffffffffffffffffff1660601b815250508060a0818152505050620002a6565b828054620001389062000227565b90600052602060002090601f0160209004810192826200015c5760008555620001a8565b82601f106200017757805160ff1916838001178555620001a8565b82800160010185558215620001a8579182015b82811115620001a75782518255916020019190600101906200018a565b5b509050620001b79190620001bb565b5090565b5b80821115620001d6576000816000905550600101620001bc565b5090565b600081519050620001eb816200028c565b92915050565b6000602082840312156200020457600080fd5b60006200021484828501620001da565b91505092915050565b6000819050919050565b600060028204905060018216806200024057607f821691505b602082108114156200025757620002566200025d565b5b50919050565b7f4e487b7100000000000000000000000000000000000000000000000000000000600052602260045260246000fd5b62000297816200021d565b8114620002a357600080fd5b50565b60805160601c60a0516146aa620002e460003960008181610bf001528181610d200152610f01015260008181610b0e015261115d01526146aa6000f3fe6080604052600436106101665760003560e01c806370a08231116100d1578063bfb231d21161008a578063d0def52111610064578063d0def52114610591578063d38ea5bf146105ce578063e985e9c5146105ea578063ef35ae031461062757610166565b8063bfb231d2146104d3578063c87b56dd14610517578063ca7dd3751461055457610166565b806370a08231146103c35780637fd6f15c1461040057806395d89b411461042b578063a22cb46514610456578063b88d4fde1461047f578063be74264d146104a857610166565b80632f745c59116101235780632f745c591461028d57806342842e0e146102ca5780634f6ccce7146102f35780636352211e1461033057806365e17c9d1461036d5780636bfb0d011461039857610166565b806301ffc9a71461016b57806306fdde03146101a8578063081812fc146101d3578063095ea7b31461021057806318160ddd1461023957806323b872dd14610264575b600080fd5b34801561017757600080fd5b50610192600480360381019061018d9190613024565b610650565b60405161019f919061369f565b60405180910390f35b3480156101b457600080fd5b506101bd610662565b6040516101ca91906136ba565b60405180910390f35b3480156101df57600080fd5b506101fa60048036038101906101f5919061311d565b6106f4565b60405161020791906135e6565b60405180910390f35b34801561021c57600080fd5b5061023760048036038101906102329190612fe8565b610779565b005b34801561024557600080fd5b5061024e610891565b60405161025b9190613a1c565b60405180910390f35b34801561027057600080fd5b5061028b60048036038101906102869190612e8e565b61089e565b005b34801561029957600080fd5b506102b460048036038101906102af9190612fe8565b6108fe565b6040516102c19190613a1c565b60405180910390f35b3480156102d657600080fd5b506102f160048036038101906102ec9190612e8e565b6109a3565b005b3480156102ff57600080fd5b5061031a6004803603810190610315919061311d565b6109c3565b6040516103279190613a1c565b60405180910390f35b34801561033c57600080fd5b506103576004803603810190610352919061311d565b610a5a565b60405161036491906135e6565b60405180910390f35b34801561037957600080fd5b50610382610b0c565b60405161038f9190613601565b60405180910390f35b3480156103a457600080fd5b506103ad610b30565b6040516103ba9190613a1c565b60405180910390f35b3480156103cf57600080fd5b506103ea60048036038101906103e59190612e29565b610b36565b6040516103f79190613a1c565b60405180910390f35b34801561040c57600080fd5b50610415610bee565b6040516104229190613a1c565b60405180910390f35b34801561043757600080fd5b50610440610c12565b60405161044d91906136ba565b60405180910390f35b34801561046257600080fd5b5061047d60048036038101906104789190612f58565b610ca4565b005b34801561048b57600080fd5b506104a660048036038101906104a19190612edd565b610cba565b005b3480156104b457600080fd5b506104bd610d1c565b6040516104ca9190613a1c565b60405180910390f35b3480156104df57600080fd5b506104fa60048036038101906104f5919061311d565b610d44565b60405161050e989796959493929190613a37565b60405180910390f35b34801561052357600080fd5b5061053e6004803603810190610539919061311d565b610ee9565b60405161054b91906136ba565b60405180910390f35b34801561056057600080fd5b5061057b6004803603810190610576919061311d565b610efb565b6040516105889190613a1c565b60405180910390f35b34801561059d57600080fd5b506105b860048036038101906105b39190612f94565b610f56565b6040516105c59190613a1c565b60405180910390f35b6105e860048036038101906105e3919061311d565b610f94565b005b3480156105f657600080fd5b50610611600480360381019061060c9190612e52565b611292565b60405161061e919061369f565b60405180910390f35b34801561063357600080fd5b5061064e60048036038101906106499190613076565b611326565b005b600061065b8261173d565b9050919050565b60606000805461067190613da7565b80601f016020809104026020016040519081016040528092919081815260200182805461069d90613da7565b80156106ea5780601f106106bf576101008083540402835291602001916106ea565b820191906000526020600020905b8154815290600101906020018083116106cd57829003601f168201915b5050505050905090565b60006106ff826117b7565b61073e576040517f08c379a0000000000000000000000000000000000000000000000000000000008152600401610735906138fc565b60405180910390fd5b6004600083815260200190815260200160002060009054906101000a900473ffffffffffffffffffffffffffffffffffffffff169050919050565b600061078482610a5a565b90508073ffffffffffffffffffffffffffffffffffffffff168373ffffffffffffffffffffffffffffffffffffffff1614156107f5576040517f08c379a00000000000000000000000000000000000000000000000000000000081526004016107ec9061397c565b60405180910390fd5b8073ffffffffffffffffffffffffffffffffffffffff16610814611823565b73ffffffffffffffffffffffffffffffffffffffff16148061084357506108428161083d611823565b611292565b5b610882576040517f08c379a0000000000000000000000000000000000000000000000000000000008152600401610879906137fc565b60405180910390fd5b61088c838361182b565b505050565b6000600980549050905090565b6108af6108a9611823565b826118e4565b6108ee576040517f08c379a00000000000000000000000000000000000000000000000000000000081526004016108e59061399c565b60405180910390fd5b6108f98383836119c2565b505050565b600061090983610b36565b821061094a576040517f08c379a0000000000000000000000000000000000000000000000000000000008152600401610941906136fc565b60405180910390fd5b600760008473ffffffffffffffffffffffffffffffffffffffff1673ffffffffffffffffffffffffffffffffffffffff168152602001908152602001600020600083815260200190815260200160002054905092915050565b6109be83838360405180602001604052806000815250610cba565b505050565b60006109cd610891565b8210610a0e576040517f08c379a0000000000000000000000000000000000000000000000000000000008152600401610a05906139bc565b60405180910390fd5b60098281548110610a48577f4e487b7100000000000000000000000000000000000000000000000000000000600052603260045260246000fd5b90600052602060002001549050919050565b6000806002600084815260200190815260200160002060009054906101000a900473ffffffffffffffffffffffffffffffffffffffff169050600073ffffffffffffffffffffffffffffffffffffffff168173ffffffffffffffffffffffffffffffffffffffff161415610b03576040517f08c379a0000000000000000000000000000000000000000000000000000000008152600401610afa9061383c565b60405180910390fd5b80915050919050565b7f000000000000000000000000000000000000000000000000000000000000000081565b600c5481565b60008073ffffffffffffffffffffffffffffffffffffffff168273ffffffffffffffffffffffffffffffffffffffff161415610ba7576040517f08c379a0000000000000000000000000000000000000000000000000000000008152600401610b9e9061381c565b60405180910390fd5b600360008373ffffffffffffffffffffffffffffffffffffffff1673ffffffffffffffffffffffffffffffffffffffff168152602001908152602001600020549050919050565b7f000000000000000000000000000000000000000000000000000000000000000081565b606060018054610c2190613da7565b80601f0160208091040260200160405190810160405280929190818152602001828054610c4d90613da7565b8015610c9a5780601f10610c6f57610100808354040283529160200191610c9a565b820191906000526020600020905b815481529060010190602001808311610c7d57829003601f168201915b5050505050905090565b610cb6610caf611823565b8383611c29565b5050565b610ccb610cc5611823565b836118e4565b610d0a576040517f08c379a0000000000000000000000000000000000000000000000000000000008152600401610d019061399c565b60405180910390fd5b610d1684848484611d96565b50505050565b60007f0000000000000000000000000000000000000000000000000000000000000000905090565b600d602052806000526040600020600091509050806000015490806001018054610d6d90613da7565b80601f0160208091040260200160405190810160405280929190818152602001828054610d9990613da7565b8015610de65780601f10610dbb57610100808354040283529160200191610de6565b820191906000526020600020905b815481529060010190602001808311610dc957829003601f168201915b5050505050908060020160009054906101000a900473ffffffffffffffffffffffffffffffffffffffff1690806003015490806004018054610e2790613da7565b80601f0160208091040260200160405190810160405280929190818152602001828054610e5390613da7565b8015610ea05780601f10610e7557610100808354040283529160200191610ea0565b820191906000526020600020905b815481529060010190602001808311610e8357829003601f168201915b5050505050908060050154908060060160009054906101000a900473ffffffffffffffffffffffffffffffffffffffff16908060060160149054906101000a900460ff16905088565b6060610ef482611df2565b9050919050565b600060647f00000000000000000000000000000000000000000000000000000000000000006064610f2c9190613bee565b610f369190613c44565b600d60008481526020019081526020016000206005018190559050919050565b600080610f746001610f66610891565b611f4490919063ffffffff16565b9050610f808482611f5a565b610f8a8184611f78565b8091505092915050565b6002600b541415610fda576040517f08c379a0000000000000000000000000000000000000000000000000000000008152600401610fd1906139dc565b60405180910390fd5b6002600b819055506000610fed82610efb565b90506000600d600084815260200190815260200160002090506000831180156110185750600c548311155b611057576040517f08c379a000000000000000000000000000000000000000000000000000000000815260040161104e906138dc565b60405180910390fd5b8134101561109a576040517f08c379a00000000000000000000000000000000000000000000000000000000081526004016110919061387c565b60405180910390fd5b8060060160149054906101000a900460ff16156110ec576040517f08c379a00000000000000000000000000000000000000000000000000000000081526004016110e3906136dc565b60405180910390fd5b8060060160009054906101000a900473ffffffffffffffffffffffffffffffffffffffff1673ffffffffffffffffffffffffffffffffffffffff166108fc82600501549081150290604051600060405180830381858888f1935050505015801561115a573d6000803e3d6000fd5b507f000000000000000000000000000000000000000000000000000000000000000073ffffffffffffffffffffffffffffffffffffffff166108fc8260050154846111a59190613c75565b9081150290604051600060405180830381858888f193505050501580156111d0573d6000803e3d6000fd5b5060018160060160146101000a81548160ff0219169083151502179055508060020160009054906101000a900473ffffffffffffffffffffffffffffffffffffffff1673ffffffffffffffffffffffffffffffffffffffff166323b872dd303384600301546040518463ffffffff1660e01b81526004016112539392919061361c565b600060405180830381600087803b15801561126d57600080fd5b505af1158015611281573d6000803e3d6000fd5b5050505050506001600b8190555050565b6000600560008473ffffffffffffffffffffffffffffffffffffffff1673ffffffffffffffffffffffffffffffffffffffff16815260200190815260200160002060008373ffffffffffffffffffffffffffffffffffffffff1673ffffffffffffffffffffffffffffffffffffffff16815260200190815260200160002060009054906101000a900460ff16905092915050565b6002600b54141561136c576040517f08c379a0000000000000000000000000000000000000000000000000000000008152600401611363906139dc565b60405180910390fd5b6002600b81905550600081116113b7576040517f08c379a00000000000000000000000000000000000000000000000000000000081526004016113ae906139fc565b60405180910390fd5b60008451116113fb576040517f08c379a00000000000000000000000000000000000000000000000000000000081526004016113f29061377c565b60405180910390fd5b600083511161143f576040517f08c379a00000000000000000000000000000000000000000000000000000000081526004016114369061391c565b60405180910390fd5b600073ffffffffffffffffffffffffffffffffffffffff163373ffffffffffffffffffffffffffffffffffffffff1614156114af576040517f08c379a00000000000000000000000000000000000000000000000000000000081526004016114a69061395c565b60405180910390fd5b600c60008154809291906114c290613e0a565b91905055508473ffffffffffffffffffffffffffffffffffffffff166323b872dd3330856040518463ffffffff1660e01b81526004016115049392919061361c565b600060405180830381600087803b15801561151e57600080fd5b505af1158015611532573d6000803e3d6000fd5b50505050604051806101000160405280600c5481526020018581526020018673ffffffffffffffffffffffffffffffffffffffff1681526020018381526020018481526020018281526020013373ffffffffffffffffffffffffffffffffffffffff16815260200160001515815250600d6000600c5481526020019081526020016000206000820151816000015560208201518160010190805190602001906115dc929190612c38565b5060408201518160020160006101000a81548173ffffffffffffffffffffffffffffffffffffffff021916908373ffffffffffffffffffffffffffffffffffffffff16021790555060608201518160030155608082015181600401908051906020019061164a929190612c38565b5060a0820151816005015560c08201518160060160006101000a81548173ffffffffffffffffffffffffffffffffffffffff021916908373ffffffffffffffffffffffffffffffffffffffff16021790555060e08201518160060160146101000a81548160ff0219169083151502179055509050503373ffffffffffffffffffffffffffffffffffffffff163073ffffffffffffffffffffffffffffffffffffffff167fe2f47d282f74dbf735132b24b72a3101c33a4746cf5f42bf13fbfad5636fe379600c5487868887604051611726959493929190613ac3565b60405180910390a36001600b819055505050505050565b60007f780e9d63000000000000000000000000000000000000000000000000000000007bffffffffffffffffffffffffffffffffffffffffffffffffffffffff1916827bffffffffffffffffffffffffffffffffffffffffffffffffffffffff191614806117b057506117af82611fec565b5b9050919050565b60008073ffffffffffffffffffffffffffffffffffffffff166002600084815260200190815260200160002060009054906101000a900473ffffffffffffffffffffffffffffffffffffffff1673ffffffffffffffffffffffffffffffffffffffff1614159050919050565b600033905090565b816004600083815260200190815260200160002060006101000a81548173ffffffffffffffffffffffffffffffffffffffff021916908373ffffffffffffffffffffffffffffffffffffffff160217905550808273ffffffffffffffffffffffffffffffffffffffff1661189e83610a5a565b73ffffffffffffffffffffffffffffffffffffffff167f8c5be1e5ebec7d5bd14f71427d1e84f3dd0314c0f7b2291e5b200ac8c7c3b92560405160405180910390a45050565b60006118ef826117b7565b61192e576040517f08c379a0000000000000000000000000000000000000000000000000000000008152600401611925906137dc565b60405180910390fd5b600061193983610a5a565b90508073ffffffffffffffffffffffffffffffffffffffff168473ffffffffffffffffffffffffffffffffffffffff16148061197b575061197a8185611292565b5b806119b957508373ffffffffffffffffffffffffffffffffffffffff166119a1846106f4565b73ffffffffffffffffffffffffffffffffffffffff16145b91505092915050565b8273ffffffffffffffffffffffffffffffffffffffff166119e282610a5a565b73ffffffffffffffffffffffffffffffffffffffff1614611a38576040517f08c379a0000000000000000000000000000000000000000000000000000000008152600401611a2f9061373c565b60405180910390fd5b600073ffffffffffffffffffffffffffffffffffffffff168273ffffffffffffffffffffffffffffffffffffffff161415611aa8576040517f08c379a0000000000000000000000000000000000000000000000000000000008152600401611a9f9061379c565b60405180910390fd5b611ab38383836120ce565b611abe60008261182b565b6001600360008573ffffffffffffffffffffffffffffffffffffffff1673ffffffffffffffffffffffffffffffffffffffff1681526020019081526020016000206000828254611b0e9190613c75565b925050819055506001600360008473ffffffffffffffffffffffffffffffffffffffff1673ffffffffffffffffffffffffffffffffffffffff1681526020019081526020016000206000828254611b659190613bee565b92505081905550816002600083815260200190815260200160002060006101000a81548173ffffffffffffffffffffffffffffffffffffffff021916908373ffffffffffffffffffffffffffffffffffffffff160217905550808273ffffffffffffffffffffffffffffffffffffffff168473ffffffffffffffffffffffffffffffffffffffff167fddf252ad1be2c89b69c2b068fc378daa952ba7f163c4a11628f55a4df523b3ef60405160405180910390a4611c248383836120de565b505050565b8173ffffffffffffffffffffffffffffffffffffffff168373ffffffffffffffffffffffffffffffffffffffff161415611c98576040517f08c379a0000000000000000000000000000000000000000000000000000000008152600401611c8f906137bc565b60405180910390fd5b80600560008573ffffffffffffffffffffffffffffffffffffffff1673ffffffffffffffffffffffffffffffffffffffff16815260200190815260200160002060008473ffffffffffffffffffffffffffffffffffffffff1673ffffffffffffffffffffffffffffffffffffffff16815260200190815260200160002060006101000a81548160ff0219169083151502179055508173ffffffffffffffffffffffffffffffffffffffff168373ffffffffffffffffffffffffffffffffffffffff167f17307eab39ab6107e8899845ad3d59bd9653f200f220920489ca2b5937696c3183604051611d89919061369f565b60405180910390a3505050565b611da18484846119c2565b611dad848484846120e3565b611dec576040517f08c379a0000000000000000000000000000000000000000000000000000000008152600401611de39061371c565b60405180910390fd5b50505050565b6060611dfd826117b7565b611e3c576040517f08c379a0000000000000000000000000000000000000000000000000000000008152600401611e33906138bc565b60405180910390fd5b6000600660008481526020019081526020016000208054611e5c90613da7565b80601f0160208091040260200160405190810160405280929190818152602001828054611e8890613da7565b8015611ed55780601f10611eaa57610100808354040283529160200191611ed5565b820191906000526020600020905b815481529060010190602001808311611eb857829003601f168201915b505050505090506000611ee661227a565b9050600081511415611efc578192505050611f3f565b600082511115611f31578082604051602001611f199291906135c2565b60405160208183030381529060405292505050611f3f565b611f3a84612291565b925050505b919050565b60008183611f529190613bee565b905092915050565b611f74828260405180602001604052806000815250612338565b5050565b611f81826117b7565b611fc0576040517f08c379a0000000000000000000000000000000000000000000000000000000008152600401611fb79061385c565b60405180910390fd5b80600660008481526020019081526020016000209080519060200190611fe7929190612c38565b505050565b60007f80ac58cd000000000000000000000000000000000000000000000000000000007bffffffffffffffffffffffffffffffffffffffffffffffffffffffff1916827bffffffffffffffffffffffffffffffffffffffffffffffffffffffff191614806120b757507f5b5e139f000000000000000000000000000000000000000000000000000000007bffffffffffffffffffffffffffffffffffffffffffffffffffffffff1916827bffffffffffffffffffffffffffffffffffffffffffffffffffffffff1916145b806120c757506120c682612393565b5b9050919050565b6120d98383836123fd565b505050565b505050565b60006121048473ffffffffffffffffffffffffffffffffffffffff16612511565b1561226d578373ffffffffffffffffffffffffffffffffffffffff1663150b7a0261212d611823565b8786866040518563ffffffff1660e01b815260040161214f9493929190613653565b602060405180830381600087803b15801561216957600080fd5b505af192505050801561219a57506040513d601f19601f82011682018060405250810190612197919061304d565b60015b61221d573d80600081146121ca576040519150601f19603f3d011682016040523d82523d6000602084013e6121cf565b606091505b50600081511415612215576040517f08c379a000000000000000000000000000000000000000000000000000000000815260040161220c9061371c565b60405180910390fd5b805181602001fd5b63150b7a0260e01b7bffffffffffffffffffffffffffffffffffffffffffffffffffffffff1916817bffffffffffffffffffffffffffffffffffffffffffffffffffffffff191614915050612272565b600190505b949350505050565b606060405180602001604052806000815250905090565b606061229c826117b7565b6122db576040517f08c379a00000000000000000000000000000000000000000000000000000000081526004016122d29061393c565b60405180910390fd5b60006122e561227a565b905060008151116123055760405180602001604052806000815250612330565b8061230f84612534565b6040516020016123209291906135c2565b6040516020818303038152906040525b915050919050565b61234283836126e1565b61234f60008484846120e3565b61238e576040517f08c379a00000000000000000000000000000000000000000000000000000000081526004016123859061371c565b60405180910390fd5b505050565b60007f01ffc9a7000000000000000000000000000000000000000000000000000000007bffffffffffffffffffffffffffffffffffffffffffffffffffffffff1916827bffffffffffffffffffffffffffffffffffffffffffffffffffffffff1916149050919050565b6124088383836128bb565b600073ffffffffffffffffffffffffffffffffffffffff168373ffffffffffffffffffffffffffffffffffffffff16141561244b57612446816128c0565b61248a565b8173ffffffffffffffffffffffffffffffffffffffff168373ffffffffffffffffffffffffffffffffffffffff1614612489576124888382612909565b5b5b600073ffffffffffffffffffffffffffffffffffffffff168273ffffffffffffffffffffffffffffffffffffffff1614156124cd576124c881612a76565b61250c565b8273ffffffffffffffffffffffffffffffffffffffff168273ffffffffffffffffffffffffffffffffffffffff161461250b5761250a8282612bb9565b5b5b505050565b6000808273ffffffffffffffffffffffffffffffffffffffff163b119050919050565b6060600082141561257c576040518060400160405280600181526020017f300000000000000000000000000000000000000000000000000000000000000081525090506126dc565b600082905060005b600082146125ae57808061259790613e0a565b915050600a826125a79190613c44565b9150612584565b60008167ffffffffffffffff8111156125f0577f4e487b7100000000000000000000000000000000000000000000000000000000600052604160045260246000fd5b6040519080825280601f01601f1916602001820160405280156126225781602001600182028036833780820191505090505b5090505b600085146126d55760018261263b9190613c75565b9150600a8561264a9190613e53565b60306126569190613bee565b60f81b818381518110612692577f4e487b7100000000000000000000000000000000000000000000000000000000600052603260045260246000fd5b60200101907effffffffffffffffffffffffffffffffffffffffffffffffffffffffffffff1916908160001a905350600a856126ce9190613c44565b9450612626565b8093505050505b919050565b600073ffffffffffffffffffffffffffffffffffffffff168273ffffffffffffffffffffffffffffffffffffffff161415612751576040517f08c379a00000000000000000000000000000000000000000000000000000000081526004016127489061389c565b60405180910390fd5b61275a816117b7565b1561279a576040517f08c379a00000000000000000000000000000000000000000000000000000000081526004016127919061375c565b60405180910390fd5b6127a6600083836120ce565b6001600360008473ffffffffffffffffffffffffffffffffffffffff1673ffffffffffffffffffffffffffffffffffffffff16815260200190815260200160002060008282546127f69190613bee565b92505081905550816002600083815260200190815260200160002060006101000a81548173ffffffffffffffffffffffffffffffffffffffff021916908373ffffffffffffffffffffffffffffffffffffffff160217905550808273ffffffffffffffffffffffffffffffffffffffff16600073ffffffffffffffffffffffffffffffffffffffff167fddf252ad1be2c89b69c2b068fc378daa952ba7f163c4a11628f55a4df523b3ef60405160405180910390a46128b7600083836120de565b5050565b505050565b600980549050600a600083815260200190815260200160002081905550600981908060018154018082558091505060019003906000526020600020016000909190919091505550565b6000600161291684610b36565b6129209190613c75565b9050600060086000848152602001908152602001600020549050818114612a05576000600760008673ffffffffffffffffffffffffffffffffffffffff1673ffffffffffffffffffffffffffffffffffffffff168152602001908152602001600020600084815260200190815260200160002054905080600760008773ffffffffffffffffffffffffffffffffffffffff1673ffffffffffffffffffffffffffffffffffffffff168152602001908152602001600020600084815260200190815260200160002081905550816008600083815260200190815260200160002081905550505b6008600084815260200190815260200160002060009055600760008573ffffffffffffffffffffffffffffffffffffffff1673ffffffffffffffffffffffffffffffffffffffff16815260200190815260200160002060008381526020019081526020016000206000905550505050565b60006001600980549050612a8a9190613c75565b90506000600a6000848152602001908152602001600020549050600060098381548110612ae0577f4e487b7100000000000000000000000000000000000000000000000000000000600052603260045260246000fd5b906000526020600020015490508060098381548110612b28577f4e487b7100000000000000000000000000000000000000000000000000000000600052603260045260246000fd5b906000526020600020018190555081600a600083815260200190815260200160002081905550600a6000858152602001908152602001600020600090556009805480612b9d577f4e487b7100000000000000000000000000000000000000000000000000000000600052603160045260246000fd5b6001900381819060005260206000200160009055905550505050565b6000612bc483610b36565b905081600760008573ffffffffffffffffffffffffffffffffffffffff1673ffffffffffffffffffffffffffffffffffffffff168152602001908152602001600020600083815260200190815260200160002081905550806008600084815260200190815260200160002081905550505050565b828054612c4490613da7565b90600052602060002090601f016020900481019282612c665760008555612cad565b82601f10612c7f57805160ff1916838001178555612cad565b82800160010185558215612cad579182015b82811115612cac578251825591602001919060010190612c91565b5b509050612cba9190612cbe565b5090565b5b80821115612cd7576000816000905550600101612cbf565b5090565b6000612cee612ce984613b49565b613b24565b905082815260208101848484011115612d0657600080fd5b612d11848285613d65565b509392505050565b6000612d2c612d2784613b7a565b613b24565b905082815260208101848484011115612d4457600080fd5b612d4f848285613d65565b509392505050565b600081359050612d6681614601565b92915050565b600081359050612d7b81614618565b92915050565b600081359050612d908161462f565b92915050565b600081519050612da58161462f565b92915050565b600082601f830112612dbc57600080fd5b8135612dcc848260208601612cdb565b91505092915050565b600081359050612de481614646565b92915050565b600082601f830112612dfb57600080fd5b8135612e0b848260208601612d19565b91505092915050565b600081359050612e238161465d565b92915050565b600060208284031215612e3b57600080fd5b6000612e4984828501612d57565b91505092915050565b60008060408385031215612e6557600080fd5b6000612e7385828601612d57565b9250506020612e8485828601612d57565b9150509250929050565b600080600060608486031215612ea357600080fd5b6000612eb186828701612d57565b9350506020612ec286828701612d57565b9250506040612ed386828701612e14565b9150509250925092565b60008060008060808587031215612ef357600080fd5b6000612f0187828801612d57565b9450506020612f1287828801612d57565b9350506040612f2387828801612e14565b925050606085013567ffffffffffffffff811115612f4057600080fd5b612f4c87828801612dab565b91505092959194509250565b60008060408385031215612f6b57600080fd5b6000612f7985828601612d57565b9250506020612f8a85828601612d6c565b9150509250929050565b60008060408385031215612fa757600080fd5b6000612fb585828601612d57565b925050602083013567ffffffffffffffff811115612fd257600080fd5b612fde85828601612dea565b9150509250929050565b60008060408385031215612ffb57600080fd5b600061300985828601612d57565b925050602061301a85828601612e14565b9150509250929050565b60006020828403121561303657600080fd5b600061304484828501612d81565b91505092915050565b60006020828403121561305f57600080fd5b600061306d84828501612d96565b91505092915050565b600080600080600060a0868803121561308e57600080fd5b600061309c88828901612dd5565b955050602086013567ffffffffffffffff8111156130b957600080fd5b6130c588828901612dea565b945050604086013567ffffffffffffffff8111156130e257600080fd5b6130ee88828901612dea565b93505060606130ff88828901612e14565b925050608061311088828901612e14565b9150509295509295909350565b60006020828403121561312f57600080fd5b600061313d84828501612e14565b91505092915050565b61314f81613cbb565b82525050565b61315e81613ca9565b82525050565b61316d81613ccd565b82525050565b600061317e82613bab565b6131888185613bc1565b9350613198818560208601613d74565b6131a181613f40565b840191505092915050565b6131b581613d41565b82525050565b60006131c682613bb6565b6131d08185613bd2565b93506131e0818560208601613d74565b6131e981613f40565b840191505092915050565b60006131ff82613bb6565b6132098185613be3565b9350613219818560208601613d74565b80840191505092915050565b6000613232601183613bd2565b915061323d82613f51565b602082019050919050565b6000613255602b83613bd2565b915061326082613f7a565b604082019050919050565b6000613278603283613bd2565b915061328382613fc9565b604082019050919050565b600061329b602583613bd2565b91506132a682614018565b604082019050919050565b60006132be601c83613bd2565b91506132c982614067565b602082019050919050565b60006132e1601383613bd2565b91506132ec82614090565b602082019050919050565b6000613304602483613bd2565b915061330f826140b9565b604082019050919050565b6000613327601983613bd2565b915061333282614108565b602082019050919050565b600061334a602c83613bd2565b915061335582614131565b604082019050919050565b600061336d603883613bd2565b915061337882614180565b604082019050919050565b6000613390602a83613bd2565b915061339b826141cf565b604082019050919050565b60006133b3602983613bd2565b91506133be8261421e565b604082019050919050565b60006133d6602e83613bd2565b91506133e18261426d565b604082019050919050565b60006133f9602d83613bd2565b9150613404826142bc565b604082019050919050565b600061341c602083613bd2565b91506134278261430b565b602082019050919050565b600061343f603183613bd2565b915061344a82614334565b604082019050919050565b6000613462601283613bd2565b915061346d82614383565b602082019050919050565b6000613485602c83613bd2565b9150613490826143ac565b604082019050919050565b60006134a8601a83613bd2565b91506134b3826143fb565b602082019050919050565b60006134cb602f83613bd2565b91506134d682614424565b604082019050919050565b60006134ee602283613bd2565b91506134f982614473565b604082019050919050565b6000613511602183613bd2565b915061351c826144c2565b604082019050919050565b6000613534603183613bd2565b915061353f82614511565b604082019050919050565b6000613557602c83613bd2565b915061356282614560565b604082019050919050565b600061357a601f83613bd2565b9150613585826145af565b602082019050919050565b600061359d601c83613bd2565b91506135a8826145d8565b602082019050919050565b6135bc81613d37565b82525050565b60006135ce82856131f4565b91506135da82846131f4565b91508190509392505050565b60006020820190506135fb6000830184613155565b92915050565b60006020820190506136166000830184613146565b92915050565b60006060820190506136316000830186613155565b61363e6020830185613155565b61364b60408301846135b3565b949350505050565b60006080820190506136686000830187613155565b6136756020830186613155565b61368260408301856135b3565b81810360608301526136948184613173565b905095945050505050565b60006020820190506136b46000830184613164565b92915050565b600060208201905081810360008301526136d481846131bb565b905092915050565b600060208201905081810360008301526136f581613225565b9050919050565b6000602082019050818103600083015261371581613248565b9050919050565b600060208201905081810360008301526137358161326b565b9050919050565b600060208201905081810360008301526137558161328e565b9050919050565b60006020820190508181036000830152613775816132b1565b9050919050565b60006020820190508181036000830152613795816132d4565b9050919050565b600060208201905081810360008301526137b5816132f7565b9050919050565b600060208201905081810360008301526137d58161331a565b9050919050565b600060208201905081810360008301526137f58161333d565b9050919050565b6000602082019050818103600083015261381581613360565b9050919050565b6000602082019050818103600083015261383581613383565b9050919050565b60006020820190508181036000830152613855816133a6565b9050919050565b60006020820190508181036000830152613875816133c9565b9050919050565b60006020820190508181036000830152613895816133ec565b9050919050565b600060208201905081810360008301526138b58161340f565b9050919050565b600060208201905081810360008301526138d581613432565b9050919050565b600060208201905081810360008301526138f581613455565b9050919050565b6000602082019050818103600083015261391581613478565b9050919050565b600060208201905081810360008301526139358161349b565b9050919050565b60006020820190508181036000830152613955816134be565b9050919050565b60006020820190508181036000830152613975816134e1565b9050919050565b6000602082019050818103600083015261399581613504565b9050919050565b600060208201905081810360008301526139b581613527565b9050919050565b600060208201905081810360008301526139d58161354a565b9050919050565b600060208201905081810360008301526139f58161356d565b9050919050565b60006020820190508181036000830152613a1581613590565b9050919050565b6000602082019050613a3160008301846135b3565b92915050565b600061010082019050613a4d600083018b6135b3565b8181036020830152613a5f818a6131bb565b9050613a6e60408301896131ac565b613a7b60608301886135b3565b8181036080830152613a8d81876131bb565b9050613a9c60a08301866135b3565b613aa960c0830185613146565b613ab660e0830184613164565b9998505050505050505050565b600060a082019050613ad860008301886135b3565b8181036020830152613aea81876131bb565b9050613af960408301866135b3565b8181036060830152613b0b81856131bb565b9050613b1a60808301846135b3565b9695505050505050565b6000613b2e613b3f565b9050613b3a8282613dd9565b919050565b6000604051905090565b600067ffffffffffffffff821115613b6457613b63613f11565b5b613b6d82613f40565b9050602081019050919050565b600067ffffffffffffffff821115613b9557613b94613f11565b5b613b9e82613f40565b9050602081019050919050565b600081519050919050565b600081519050919050565b600082825260208201905092915050565b600082825260208201905092915050565b600081905092915050565b6000613bf982613d37565b9150613c0483613d37565b9250827fffffffffffffffffffffffffffffffffffffffffffffffffffffffffffffffff03821115613c3957613c38613e84565b5b828201905092915050565b6000613c4f82613d37565b9150613c5a83613d37565b925082613c6a57613c69613eb3565b5b828204905092915050565b6000613c8082613d37565b9150613c8b83613d37565b925082821015613c9e57613c9d613e84565b5b828203905092915050565b6000613cb482613d17565b9050919050565b6000613cc682613d17565b9050919050565b60008115159050919050565b60007fffffffff0000000000000000000000000000000000000000000000000000000082169050919050565b6000613d1082613ca9565b9050919050565b600073ffffffffffffffffffffffffffffffffffffffff82169050919050565b6000819050919050565b6000613d4c82613d53565b9050919050565b6000613d5e82613d17565b9050919050565b82818337600083830152505050565b60005b83811015613d92578082015181840152602081019050613d77565b83811115613da1576000848401525b50505050565b60006002820490506001821680613dbf57607f821691505b60208210811415613dd357613dd2613ee2565b5b50919050565b613de282613f40565b810181811067ffffffffffffffff82111715613e0157613e00613f11565b5b80604052505050565b6000613e1582613d37565b91507fffffffffffffffffffffffffffffffffffffffffffffffffffffffffffffffff821415613e4857613e47613e84565b5b600182019050919050565b6000613e5e82613d37565b9150613e6983613d37565b925082613e7957613e78613eb3565b5b828206905092915050565b7f4e487b7100000000000000000000000000000000000000000000000000000000600052601160045260246000fd5b7f4e487b7100000000000000000000000000000000000000000000000000000000600052601260045260246000fd5b7f4e487b7100000000000000000000000000000000000000000000000000000000600052602260045260246000fd5b7f4e487b7100000000000000000000000000000000000000000000000000000000600052604160045260246000fd5b6000601f19601f8301169050919050565b7f6974656d20616c726561647920736f6c64000000000000000000000000000000600082015250565b7f455243373231456e756d657261626c653a206f776e657220696e646578206f7560008201527f74206f6620626f756e6473000000000000000000000000000000000000000000602082015250565b7f4552433732313a207472616e7366657220746f206e6f6e20455243373231526560008201527f63656976657220696d706c656d656e7465720000000000000000000000000000602082015250565b7f4552433732313a207472616e736665722066726f6d20696e636f72726563742060008201527f6f776e6572000000000000000000000000000000000000000000000000000000602082015250565b7f4552433732313a20746f6b656e20616c7265616479206d696e74656400000000600082015250565b7f4974656d206d7573742068617665206861736800000000000000000000000000600082015250565b7f4552433732313a207472616e7366657220746f20746865207a65726f2061646460008201527f7265737300000000000000000000000000000000000000000000000000000000602082015250565b7f4552433732313a20617070726f766520746f2063616c6c657200000000000000600082015250565b7f4552433732313a206f70657261746f7220717565727920666f72206e6f6e657860008201527f697374656e7420746f6b656e0000000000000000000000000000000000000000602082015250565b7f4552433732313a20617070726f76652063616c6c6572206973206e6f74206f7760008201527f6e6572206e6f7220617070726f76656420666f7220616c6c0000000000000000602082015250565b7f4552433732313a2062616c616e636520717565727920666f7220746865207a6560008201527f726f206164647265737300000000000000000000000000000000000000000000602082015250565b7f4552433732313a206f776e657220717565727920666f72206e6f6e657869737460008201527f656e7420746f6b656e0000000000000000000000000000000000000000000000602082015250565b7f45524337323155524953746f726167653a2055524920736574206f66206e6f6e60008201527f6578697374656e7420746f6b656e000000000000000000000000000000000000602082015250565b7f6e6f7420656e6f75676820657468657220746f20636f766572206974656d207060008201527f7269636520776974682066656500000000000000000000000000000000000000602082015250565b7f4552433732313a206d696e7420746f20746865207a65726f2061646472657373600082015250565b7f45524337323155524953746f726167653a2055524920717565727920666f722060008201527f6e6f6e6578697374656e7420746f6b656e000000000000000000000000000000602082015250565b7f4974656d20646f65736e27742065786973740000000000000000000000000000600082015250565b7f4552433732313a20617070726f76656420717565727920666f72206e6f6e657860008201527f697374656e7420746f6b656e0000000000000000000000000000000000000000602082015250565b7f4974656d206d7573742068617665206465736372697074696f6e000000000000600082015250565b7f4552433732314d657461646174613a2055524920717565727920666f72206e6f60008201527f6e6578697374656e7420746f6b656e0000000000000000000000000000000000602082015250565b7f496e69746961746f72276120616464726573732063616e206e6f74206265203060008201527f7830000000000000000000000000000000000000000000000000000000000000602082015250565b7f4552433732313a20617070726f76616c20746f2063757272656e74206f776e6560008201527f7200000000000000000000000000000000000000000000000000000000000000602082015250565b7f4552433732313a207472616e736665722063616c6c6572206973206e6f74206f60008201527f776e6572206e6f7220617070726f766564000000000000000000000000000000602082015250565b7f455243373231456e756d657261626c653a20676c6f62616c20696e646578206f60008201527f7574206f6620626f756e64730000000000000000000000000000000000000000602082015250565b7f5265656e7472616e637947756172643a207265656e7472616e742063616c6c00600082015250565b7f5072696365206d7573742062652067726561746572207468616e203000000000600082015250565b61460a81613ca9565b811461461557600080fd5b50565b61462181613ccd565b811461462c57600080fd5b50565b61463881613cd9565b811461464357600080fd5b50565b61464f81613d05565b811461465a57600080fd5b50565b61466681613d37565b811461467157600080fd5b5056fea2646970667358221220ed8369af2e45a66637a7c0078a342fd689abd5b534b70b5267b311386014898364736f6c63430008020033",
  "immutableReferences": {
    "2700": [
      {
        "length": 32,
        "start": 2830
      },
      {
        "length": 32,
        "start": 4445
      }
    ],
    "2702": [
      {
        "length": 32,
        "start": 3056
      },
      {
        "length": 32,
        "start": 3360
      },
      {
        "length": 32,
        "start": 3841
      }
    ]
  },
  "source": "// SPDX-License-Identifier: MIT\r\npragma solidity ^0.8.2;\r\n\r\nimport \"@openzeppelin/contracts/token/ERC721/IERC721.sol\";\r\nimport \"@openzeppelin/contracts/security/ReentrancyGuard.sol\";\r\nimport \"./NFT.sol\";\r\n\r\ncontract NFTrade is NFT, ReentrancyGuard {\r\n  address payable public immutable feeAccount; // The account that recieves fees   \r\n  uint public immutable feePercent; // The fee percentage on sales\r\n  uint public itemCount = 0;\r\n\r\n  constructor(uint _feePercent) {\r\n    feeAccount = payable(msg.sender);\r\n    feePercent = _feePercent;\r\n  }\r\n\r\n  // List items\r\n  mapping(uint => Item) public items;\r\n\r\n  struct Item {\r\n    uint itemId;\r\n    string hash;\r\n    IERC721 nft;\r\n    uint tokenId;\r\n    string description;\r\n    uint price;\r\n    address payable seller;\r\n    bool sold;\r\n  }\r\n\r\n  event Offered(\r\n    uint itemId,\r\n    string hash,\r\n    address indexed nft,\r\n    uint tokenId,\r\n    string description,\r\n    uint price,\r\n    address indexed seller\r\n  );\r\n\r\n  event Bought(\r\n    uint itemId,\r\n    string hash,\r\n    address indexed nft,\r\n    uint tokenId,\r\n    uint price,\r\n    address indexed seller,\r\n    address indexed buyer\r\n  );\r\n\r\n  // Create NFT item\r\n  function listItem(IERC721 _nft, string memory _hash, string memory _description, uint _tokenId, uint _price) external nonReentrant {\r\n    require(_price > 0, \"Price must be greater than 0\");\r\n\r\n    // Make sure item hash exists\r\n    require(bytes(_hash).length > 0, \"Item must have hash\");\r\n\r\n    // Make sure item description exists\r\n    require(bytes(_description).length > 0, \"Item must have description\");\r\n\r\n    // Make sure upploader address exists\r\n    require(msg.sender != address(0x0), \"Initiator'a address can not be 0x0\");\r\n    \r\n    // Increment item id\r\n    itemCount ++;\r\n\r\n    // Transfer nft \r\n    _nft.transferFrom(msg.sender, address(this), _tokenId);\r\n\r\n    // Add new item to items mapping\r\n    items[itemCount] = Item(\r\n        itemCount,\r\n        _hash,\r\n        _nft,\r\n        _tokenId,\r\n        _description,\r\n        _price,\r\n        payable(msg.sender),\r\n        false\r\n    );\r\n\r\n    // Trigger an event\r\n    emit Offered(itemCount, _hash, address(this), _tokenId, _description, _price, msg.sender);\r\n  }\r\n\r\n  function getFeePercent() public view returns(uint) {\r\n    return(feePercent);\r\n  }\r\n  \r\n  function purchaseItem(uint _itemId) external payable nonReentrant {\r\n    uint _totalPrice = getTotalPrice(_itemId);\r\n    Item storage item = items[_itemId];\r\n    require(_itemId > 0 && _itemId <= itemCount, \"Item doesn't exist\");\r\n    require(msg.value >= _totalPrice, \"not enough ether to cover item price with fee\");\r\n    require(!item.sold, \"item already sold\");\r\n\r\n    // Pay seller and feeAccount\r\n    item.seller.transfer(item.price);\r\n    feeAccount.transfer(_totalPrice - item.price);\r\n\r\n    // Update item to sold\r\n    item.sold = true;\r\n\r\n    // Transfer nft to buyer\r\n    item.nft.transferFrom(address(this), msg.sender, item.tokenId);\r\n  }\r\n\r\n  function getTotalPrice(uint _itemId) public returns(uint) {\r\n    return(items[_itemId].price = (100 + feePercent)/100);\r\n  }\r\n}",
  "sourcePath": "E:\\Programming\\DEFIstudy\\NFTrade\\src\\contracts\\NFTrade.sol",
  "compiler": {
    "name": "solc",
    "version": "0.8.2+commit.661d1103.Emscripten.clang"
  },
  "schemaVersion": "3.4.7",
  "updatedAt": "2022-11-17T18:01:35.523Z",
  "networkType": "ethereum",
  "devdoc": {
    "kind": "dev",
    "methods": {
      "approve(address,uint256)": {
        "details": "See {IERC721-approve}."
      },
      "balanceOf(address)": {
        "details": "See {IERC721-balanceOf}."
      },
      "getApproved(uint256)": {
        "details": "See {IERC721-getApproved}."
      },
      "isApprovedForAll(address,address)": {
        "details": "See {IERC721-isApprovedForAll}."
      },
      "name()": {
        "details": "See {IERC721Metadata-name}."
      },
      "ownerOf(uint256)": {
        "details": "See {IERC721-ownerOf}."
      },
      "safeTransferFrom(address,address,uint256)": {
        "details": "See {IERC721-safeTransferFrom}."
      },
      "safeTransferFrom(address,address,uint256,bytes)": {
        "details": "See {IERC721-safeTransferFrom}."
      },
      "setApprovalForAll(address,bool)": {
        "details": "See {IERC721-setApprovalForAll}."
      },
      "symbol()": {
        "details": "See {IERC721Metadata-symbol}."
      },
      "tokenByIndex(uint256)": {
        "details": "See {IERC721Enumerable-tokenByIndex}."
      },
      "tokenOfOwnerByIndex(address,uint256)": {
        "details": "See {IERC721Enumerable-tokenOfOwnerByIndex}."
      },
      "totalSupply()": {
        "details": "See {IERC721Enumerable-totalSupply}."
      },
      "transferFrom(address,address,uint256)": {
        "details": "See {IERC721-transferFrom}."
      }
    },
    "version": 1
  },
  "userdoc": {
    "kind": "user",
    "methods": {},
    "version": 1
  }
}