{
    "contractName": "NFTrade",
    "abi": [
        {
            "inputs": [
                {
                    "internalType": "uint256",
                    "name": "_feePercent",
                    "type": "uint256"
                }
            ],
            "stateMutability": "nonpayable",
            "type": "constructor"
        },
        {
            "inputs": [],
            "name": "feeAccount",
            "outputs": [
                {
                    "internalType": "address payable",
                    "name": "",
                    "type": "address"
                }
            ],
            "stateMutability": "view",
            "type": "function"
        },
        {
            "inputs": [],
            "name": "feePercent",
            "outputs": [
                {
                    "internalType": "uint256",
                    "name": "",
                    "type": "uint256"
                }
            ],
            "stateMutability": "view",
            "type": "function"
        },
        {
            "inputs": [],
            "name": "itemCount",
            "outputs": [
                {
                    "internalType": "uint256",
                    "name": "",
                    "type": "uint256"
                }
            ],
            "stateMutability": "view",
            "type": "function"
        }
    ],
    "bytecode": "60c060405234801561001057600080fd5b5060405161017438038061017483398101604081905261002f91610043565b60016000553360601b60805260a05261005b565b600060208284031215610054578081fd5b5051919050565b60805160601c60a05160f561007f6000396000609d015260006045015260f56000f3fe6080604052348015600f57600080fd5b5060043610603c5760003560e01c806365e17c9d1460415780636bfb0d011460845780637fd6f15c146099575b600080fd5b60677f000000000000000000000000000000000000000000000000000000000000000081565b6040516001600160a01b0390911681526020015b60405180910390f35b608c60015481565b604051908152602001607b565b608c7f00000000000000000000000000000000000000000000000000000000000000008156fea2646970667358221220765be53607ed15341f49952f1a6f79d69b7cf41699000209343fff9164662ae464736f6c63430008040033",
    "sourcePath": "x:/Programming/DEFIstudy/NFTrade/src/contracts/NFTrade.sol",
    "compiler": {
        "name": "solc",
        "version": "0.8.4+commit.c7e474f2"
    },
    "functionHashes": {
        "feeAccount()": "65e17c9d",
        "feePercent()": "7fd6f15c",
        "itemCount()": "6bfb0d01"
    },
    "gasEstimates": {
        "creation": {
            "codeDepositCost": "49000",
            "executionCost": "infinite",
            "totalCost": "infinite"
        },
        "external": {
            "feeAccount()": "infinite",
            "feePercent()": "infinite",
            "itemCount()": "995"
        }
    }
}